S0120000556E6950726F6A6563742E737265630F
S113000077C0000095C0000093C0000091C00000BC
S1130010D0C400008DC000008BC0000089C0000067
S113002087C0000098C4000083C0000081C00000A5
S11300307FC000007DC000007BC0000079C00000CC
S113004077C0000075C0000073C0000071C00000DC
S113005069C200006DC000006BC0000072C50000E2
S113006067C0000062C6000063C0000061C00000F9
S11300705FC000005DC000005BC0000059C000000C
S113008057C0000055C0000053C00000EAC1000082
S11300904FC000004DC000004BC0000049C000002C
S11300A047C0000045C0000043C0000041C000003C
S11300B03FC000003DC000003BC0000039C000004C
S11300C037C0000035C00000F4C4000031C0000097
S11300D02FC000002DC000002BC0000029C000006C
S11300E027C000006364696E6F70737578585B0095
S11300F011241FBECFEFD1E2DEBFCDBF00E00CBFA5
S113010012E0A0E0B2E0E4E1FAE100E00BBF02C0DB
S113011007900D92A632B107D9F722E0A6E2B2E029
S113012001C01D92AC38B207E1F7E6D30C94080D78
S113013067CF8F929F92AF92BF92EF92CF93DF934C
S11301404B015C01D42FC22F60E472E48FE090E095
S1130150A50194010E947609CA01B90174D70E94CD
S1130160D90861507109D13019F482E08093C0003C
S11301701092C5006093C40088E98093C10082E0B6
S1130180E81203C088E08093C200C63031F4E2EC88
S1130190F0E08081826080830FC0C73031F4E2ECEC
S11301A0F0E080818460808307C0C93029F4E2ECE8
S11301B0F0E080818E608083DF91CF91EF90BF90DB
S11301C0AF909F908F900895CF92DF92EF92FF921D
S11301D06B017C0120E030E048EC52E404D71816AF
S11301E0BCF06091A6007091A70080E090E02BD74E
S11301F02AE037ED43E25CE30E941309A70196016C
S11302000E941309F4D67093A9006093A8001AC041
S113021020E030E0A901C701B601E5D618162CF09C
S11302201092A9001092A8000DC020E030E048EC24
S113023052E4C701B601B9D7181624F41092A900E4
S11302401092A800FF90EF90DF90CF9008958F92C6
S11302509F92AF92BF92CF92DF92EF92FF920F9351
S11302601F934B015C0169017A01E1EAF0E010821D
S1130270A1E0B1E08C9188608C93A0EAB0E08C910D
S113028082688C9380818861808360E074E284EF6B
S113029090E0A50194010E94760989019A01011553
S11302A0110561E02607310538F1D901C80141E0A3
S11302B050E0B695A795979587954F5F5F4F009748
S11302C061E0A607B105A8F74630510514F045E0F2
S11302D050E04330510581F13CF44130510561F067
S11302E042305105A9F060C044305105C9F1453090
S11302F0510509F445C058C0E1EAF0E0808181600D
S11303008083015011091093A7000093A6004CC0EC
S1130310E1EAF0E0808182608083689412F8369587
S11303202795179507951694D1F701501109109345
S1130330A7000093A60038C0E1EAF0E08081836062
S11303408083689415F83695279517950795169424
S1130350D1F7015011091093A7000093A60024C0FF
S1130360E1EAF0E0808184608083012F122F232F43
S11303703327015011091093A7000093A60014C05D
S1130380E1EAF0E08081856080830F2EFAE0369503
S1130390279517950795FA95D1F7F02D0F5F1F4F05
S11303A01093A7000093A6008091A6009091A70047
S11303B0892B29F41092A9001092A80003C0C70148
S11303C0B60102DF1F910F91FF90EF90DF90CF9065
S11303D0BF90AF909F908F900895E1E0F1E080810D
S11303E08F7B80830895E1E0F1E0808180648083E5
S11303F008958AE18093B400F6DFEDC40895000007
S113040083B1881F8827881F089584E18093B400EE
S113041010920F02E8CF089588E28093B40081E03F
S113042080930F02E0CF0895E8E6F0E080818160D8
S11304308083EBE6F0E080818068808308952798CC
S1130440E1E0F1E080818F7B8083E0EBF0E080816C
S113045083628083E1EBF0E0808187608083C9CF91
S113046008951F920F920FB60F9211240BB60F929C
S11304702F933F934F935F936F937F938F939F93A8
S1130480AF93BF93EF93FF93C7DFB6D4CDDFFF9154
S1130490EF91BF91AF919F918F917F916F915F91F8
S11304A04F913F912F910F900BBE0F900FBE0F9065
S11304B01F90189524980895249A08958CE18093A8
S11304C0B300FADF6CC40895000083B186FB88276B
S11304D080F9089584E18093B30010920E02ECCF6A
S11304E008958DE28093B30081E080930E02E4CFFF
S11304F00895E8E6F0E0808181608083EBE6F0E037
S1130500808180648083089526982498E0EBF0E04D
S1130510808183688083E1EBF0E080818760808361
S1130520CDCF08951F920F920FB60F9211240BB6E0
S11305300F922F933F934F935F936F937F938F9378
S11305409F93AF93BF93EF93FF93CBDF39D4D1DF66
S1130550FF91EF91BF91AF919F918F917F916F9197
S11305605F914F913F912F910F900BBE0F900FBE53
S11305700F901F901895E3E7F0E0808181608083FD
S113058081E0809321018FEF95E090932501809382
S1130590240108952F923F924F925F926F927F921F
S11305A08F929F92AF92BF92CF92DF92EF92FF927F
S11305B00F931F93CF93DF93CDB7DEB72C970FB66E
S11305C0F894DEBF0FBECDBFDC012C912A3009F4B4
S11305D07AC17C01FC01812C912C00E010E00F2EEB
S11305E0F0E06F2EF2E07F2EF02D2E01BBE04B0EDB
S11305F0511C0F2EF3E22F2EF2E03F2EF02DCE01F0
S113060001965C018081833529F4D30113961C92F1
S11306101E92129780818235E9F5F8013196EE0D2C
S1130620FF1D80818833B1F56801B2E0CB0ED11C87
S1130630C7018C0D9D1DFC0120812C37B1F0D50123
S1130640A80DB91D0D5F1F4F081B190B80818D93D9
S11306508FEFC81AD80A4D018A189B08E00FF11FC2
S1130660EE0DFF1D80818C3789F75F924F923F9288
S11306702F92BF92AF9275D68B859C85D30113962A
S11306809C938E9312970F900F900F900F900F9052
S11306900F908601F701E00FF11F80818635F1F498
S11306A0F8013196EE0DFF1D80818033B9F40E5FA1
S11306B01F4F6701C00ED11EF6018081893529F4D0
S11306C0A4E7B2E0ED91FC911995F60180818E3496
S11306D029F4E0918002F09181021995F701E00F6D
S11306E0F11F80818635F1F4F8013196EE0DFF1D7E
S11306F080818133B9F40E5F1F4F6701C00ED11E94
S1130700D6018C91893529F4E0917602F091770233
S11307101995F60180818E3429F4E0918202F091DA
S113072083021995F701E00FF11F80818635F1F4FA
S1130730F8013196EE0DFF1D80818233B9F40E5F0E
S11307401F4F6701C00ED11ED6018C91893529F443
S1130750E0917802F09179021995F60180818E3446
S113076029F4E0918402F09185021995F701E00FD4
S1130770F11F80818635F1F4F8013196EE0DFF1DED
S113078080818333B9F40E5F1F4F6701C00ED11E01
S1130790D6018C91893529F4E0917A02F0917B029B
S11307A01995F60180818E3429F4E0918602F09146
S11307B087021995F701E00FF11F80818635F1F466
S11307C0F8013196EE0DFF1D80818433B9F40E5F7C
S11307D01F4F6701C00ED11ED6018C91893529F4B3
S11307E0E0917C02F0917D021995F60180818E34AE
S11307F029F4E0918802F09189021995F701E00F3C
S1130800F11F80818635F1F4F8013196EE0DFF1D5C
S113081080818533B9F40E5F1F4F6701C00ED11E6E
S1130820D6018C91893529F4E0917E02F0917F0202
S11308301995F60180818E3429F4E0918A02F091B1
S11308408B021995F701E00FF11F80818635B1F411
S1130850F8013196EE0DFF1D8081863379F40E5F29
S11308601F4F6701C00ED11ED6018C91893509F442
S1130870D3DDF60180818E3409F4C7DDF701E00F82
S1130880F11F80818635B1F4F8013196EE0DFF1D1C
S11308908081873379F40E5F1F4F6701C00ED11E2C
S11308A0D6018C91893509F41CDEF60180818E34E1
S11308B009F410DE0F5F1F4FF701E00FF11F808175
S11308C08A3009F09FCE2C960FB6F894DEBF0FBE87
S11308D0CDBFDF91CF911F910F91FF90EF90DF90EB
S11308E0CF90BF90AF909F908F907F906F905F90CC
S11308F04F903F902F900895099A829AE1E0F1E099
S1130900808180618083EEE6F0E080818160808375
S113091085B5856085BDE9E6F0E0808180648083EB
S1130920EB9A789428DE8BDDEFDDE12C00E028E003
S113093040E060E271EA87E090E0FBDBE8E0F2E0AF
S113094022813381448155816081718180E090E00E
S11309507EDCB1D2FFCF1F920F920FB60F921124FB
S11309600BB60F922F933F934F935F936F937F93A5
S11309708F939F93AF93BF93EF93FF9340DD8111C8
S113098001C02BDDA1DD811101C094DDFF91EF9148
S1130990BF91AF919F918F917F916F915F914F9193
S11309A03F912F910F900BBE0F900FBE0F901F9091
S11309B018951F920F920FB60F9211240BB60F9237
S11309C0CF92DF92EF92FF920F931F932F933F9357
S11309D04F935F936F937F938F939F93AF93BF9343
S11309E0CF93DF93EF93FF93E0E0F2E0848195816E
S11309F00196958384832481358186819781281784
S1130A003907E0F1C9E2D2E0288139814A815B816A
S1130A1004E211E0D801ED91FC91C888D988EA88F4
S1130A20FB88A0E0BAEF84D4DC01CB018E0F9F1FBA
S1130A30A11DB11DC80ED91EEA1EFB1EC88AD98A83
S1130A40EA8AFB8A288939894A895B8960E07CE8DB
S1130A5086E897E44BD4E0E0F2E03183208315820A
S1130A601482188219821A821B82188A198A1A8A95
S1130A701B8A8FEF95E0F80191838083FF91EF91BA
S1130A80DF91CF91BF91AF919F918F917F916F91A2
S1130A905F914F913F912F911F910F91FF90EF9094
S1130AA0DF90CF900F900BBE0F900FBE0F901F9052
S1130AB018951F920F920FB60F9211240BB60F9236
S1130AC02F933F934F935F936F937F938F939F9352
S1130AD0AF93BF93EF93FF93E2E0F1E0908180E165
S1130AE08927808380912802813029F48DE392E064
S1130AF051DD109228028FEF95E0909325018093A9
S1130B002401E9E2F2E080819181A281B38101961E
S1130B10A11DB11D80839183A283B383FF91EF91C3
S1130B20BF91AF919F918F917F916F915F914F9101
S1130B303F912F910F900BBE0F900FBE0F901F90FF
S1130B4018951F920F920FB60F9211240BB60F92A5
S1130B50CF92DF92EF92FF920F931F932F933F93C5
S1130B604F935F936F937F938F939F93AF93BF93B1
S1130B70CF93DF93EF93FF9383E886BD80912602A2
S1130B809091270201968D37910528F490932702BE
S1130B908093260204C01092270210922602E9E2F2
S1130BA0F2E084859585A685B7850196A11DB11DC2
S1130BB084879587A687B7874997A105B10508F467
S1130BC099C0109235021092360210923702109298
S1130BD0380280910202909103020B974CF460E07A
S1130BE070E0CB01F1DA109201021092000282C08F
S1130BF0C0E0D2E06A817B818881998108E012E0BB
S1130C00F801C280D380E480F580681B790B072E3D
S1130C10000C880B990B19D22FE632E143E85AE312
S1130C2002D3A70196017BD1F80162837383848385
S1130C309583CADA288139818A819B8128173907EB
S1130C405CF58A819B8128813981C0900A02D09009
S1130C500B02E0900C02F0900D02821B930BBC017E
S1130C6022F466277727681B790B072E000C880B64
S1130C70990BEBD12FE632E143E05AE3D4D2A7013A
S1130C8096014DD160930A0270930B0280930C027B
S1130C9090930D0299DA2EC0E0E0F2E08281938114
S1130CA020813181C0900A02D0900B02E0900C02A6
S1130CB0F0900D02821B930BBC0122F46627772768
S1130CC0681B790B072E000C880B990BBED12FE6FD
S1130CD032E143E05AE3A7D29B01AC01C701B6015C
S1130CE01DD160930A0270930B0280930C029093BF
S1130CF00D026ADAFF91EF91DF91CF91BF91AF912D
S1130D009F918F917F916F915F914F913F912F911F
S1130D101F910F91FF90EF90DF90CF900F900BBE3B
S1130D200F900FBE0F901F9018951F920F920FB641
S1130D300F9211240BB60F928F93AF93BF93EF933F
S1130D40FF93ADE3B2E0D596EC91D597F0E08091B6
S1130D50C600E35CFD4F8083D596EC91F0E0E35C44
S1130D60FD4F80818A3031F41092720281E08093C9
S1130D70280209C0EDE3F2E085A98F5F85AB8D32CF
S1130D8010F010927202FF91EF91BF91AF918F9189
S1130D900F900BBE0F900FBE0F901F9018958EEE04
S1130DA095E89093850080938400EFE6F0E08081DD
S1130DB081608083E1E8F0E080818460808308952D
S1130DC0EFE6F0E080818E7F8083E1E8F0E08081CF
S1130DD08B7F808308958EEE95E8909395008093A1
S1130DE09400E1E7F0E0808181608083E1E9F0E054
S1130DF08081846080830895E1E7F0E080818E7FC4
S1130E008083E1E9F0E080818B7F80830895809A7C
S1130E10889A0895819A899A0895859A8D9A089551
S1130E20E7E0F1E0808181608083E8E0F1E08081A7
S1130E30816080830895E7E0F1E0808180648083AD
S1130E40E8E0F1E08081806480830895E7E0F1E0E8
S1130E50808180688083E8E0F1E08081806880831D
S1130E600895809888980895819889980895859818
S1130E708D980895E7E0F1E080818E7F8083E8E03B
S1130E80F1E080818E7F80830895E7E0F1E0808146
S1130E908F7B8083E8E0F1E080818F7B80830895FD
S1130EA0E7E0F1E080818F778083E8E0F1E0808102
S1130EB08F7780830895E4E7F2E087E097E09183F9
S1130EC080838AE097E0938382838DE097E0958323
S1130ED0848380E197E0978386838BE197E0918711
S1130EE0808786E297E09387828781E397E09587FE
S1130EF0848784E397E09787868787E397E0918BDD
S1130F00808B8AE397E0938B828B85E497E0958BC3
S1130F10848B80E597E0978B868B08955058BB2788
S1130F20AA270ED008C1F9D030F0FED020F031F459
S1130F309F3F11F41EF4EEC00EF4E095E7FBE4C00D
S1130F40E92F0AD180F3BA1762077307840795075C
S1130F5018F071F49EF522C10EF4E0950B2EBA2F11
S1130F60A02D0B01B90190010C01CA01A0011124AB
S1130F70FF27591B99F0593F50F4503E68F11A1657
S1130F80F040A22F232F342F4427585FF3CF4695E8
S1130F9037952795A795F0405395C9F77EF41F160A
S1130FA0BA0B620B730B840BBAF09150A1F0FF0FD4
S1130FB0BB1F661F771F881FC2F70EC0BA0F621FC0
S1130FC0731F841F48F4879577956795B795F795B0
S1130FD09E3F08F0B3CF9395880F08F09927EE0F42
S1130FE09795879508956CD008F481E00895BCD056
S1130FF088F09F5790F0B92F9927B751A0F0D1F0FE
S1131000660F771F881F991F1AF0BA95C9F712C087
S1131010B13081F0C3D0B1E00895C0C0672F782FFC
S11310208827B85F39F0B93FCCF3869577956795F3
S1131030B395D9F73EF490958095709561957F4F5F
S11310408F4F9F4F0895E89409C097FB3EF4909505
S11310508095709561957F4F8F4F9F4F9923A9F08D
S1131060F92F96E9BB279395F6958795779567951C
S1131070B795F111F8CFFAF4BB0F11F460FF1BC060
S11310806F5F7F4F8F4F9F4F16C0882311F096E9F3
S113109011C0772321F09EE8872F762F05C06623A1
S11310A071F096E8862F70E060E02AF09A95660F5A
S11310B0771F881FDAF7880F9695879597F9089513
S11310C0990F0008550FAA0BE0E8FEEF1616170655
S11310D0E807F907C0F012161306E407F50798F0BD
S11310E0621B730B840B950B39F40A2661F0232BD6
S11310F0242B252B21F408950A2609F4A140A69552
S11311008FEF811D811D089597F99F6780E870E036
S113111060E008959FEF80EC089500240A94161669
S1131120170618060906089500240A9412161306D1
S1131130140605060895092E0394000C11F488235F
S113114052F0BB0F40F4BF2B11F460FF04C06F5F7B
S11311507F4F8F4F9F4F089557FD9058440F551F51
S113116059F05F3F71F04795880F97FB991F61F025
S11311709F3F79F087950895121613061406551F9C
S1131180F2CF4695F1DF08C0161617061806991F08
S1131190F1CF86957105610508940895E894BB27FD
S11311A066277727CB0197F908958ADF08F48FEF34
S11311B00895DADFA8F19E57A8F1985160F039F14B
S11311C0983070F5092E9927660F771F881F991F8D
S11311D00A94D1F71CC0BB27993F4CF4B111B1E07C
S11311E0B62B672F782F8827985FB1F708C08695AC
S11311F077956795B79508F4B1609395C1F7BB0FE0
S113120030F411F460FF03C06F5F7F4F8F4F3EF4E3
S113121090958095709561957F4F8F4F9F4F08955E
S11312206894BDCFBBCF0BD086CF77DF28F07CDFAF
S113123018F0952309F068CF6DCF1124B0CF8CDF5F
S1131240A0F3959FD1F3950F50E0551F629FF001D5
S1131250729FBB27F00DB11D639FAA27F00DB11D2E
S1131260AA1F649F6627B00DA11D661F829F2227B7
S1131270B00DA11D621F739FB00DA11D621F839F3E
S1131280A00D611D221F749F3327A00D611D231F14
S1131290849F600D211D822F762F6A2F11249F5762
S11312A050408AF0E1F088234AF0EE0FFF1FBB1F85
S11312B0661F771F881F91505040A9F79E3F510524
S11312C070F022CF6CCF5F3FECF3983EDCF3869551
S11312D077956795B795F795E7959F5FC1F7FE2BCF
S11312E0880F911D9695879597F90895A1E21A2E76
S11312F0AA1BBB1BFD010DC0AA1FBB1FEE1FFF1FB6
S1131300A217B307E407F50720F0A21BB30BE40B05
S1131310F50B661F771F881F991F1A9469F760954C
S11313207095809590959B01AC01BD01CF01089506
S113133009D0A59F900DB49F900DA49F800D911D81
S113134011240895A29FB001B39FC001A39F700D03
S1131350811D1124911DB29F700D811D1124911DB9
S11313600895CF93DF93CDB7DEB72E970FB6F894D9
S1131370DEBF0FBECDBF85E08C838C899D899A83A7
S11313808983AE01485E5F4F6E897F89CE010196E5
S1131390BBD12E960FB6F894DEBF0FBECDBFDF9142
S11313A0CF91089520FD09C0FC0123FD05C022FF53
S11313B002C07383628351834083089544FD17C040
S11313C046FD17C0AB01BC01DA01FB01AA0FBB1F2C
S11313D0EE1FFF1F1094D1F74A0F5B1F6E1F7F1F74
S11313E0CB01BA01660F771F881F991F09C033E02C
S11313F001C034E0660F771F881F991F3150D1F761
S1131400620F711D811D911D08950F931F93CF933A
S1131410DF938C01C801A2D2EC0197FD06C08BD2E8
S1131420892BC1F7B801CE01D7D2CE01DF91CF917C
S11314301F910F9108958F929F92AF92BF92EF9256
S1131440FF920F931F93CF93DF938C01D62F7A01D2
S1131450B22E84D29C0133272B32310531F02D3248
S1131460310559F48B2D8068B82ED15011F480E0E9
S113147061C0C80173D297FDFACFCB2DCD7F2B2D40
S11314802073F9F48033E9F4AA24AA94AD0E09F484
S11314903EC0C80163D297FD3AC09C012F7D33271B
S11314A02835310541F4C264D25089F1C80156D2BD
S11314B097FF07C02CC0B6FE02C0C26001C0C26163
S11314C0DA2D812C912C540120ED280F283078F04E
S11314D0C4FF03C0B80180D217C02A3040F0C6FF51
S11314E0F9CF2F7D3FEE320F3630A0F727504C2F27
S11314F0C501B40163DF4B015C01C260D15051F0FE
S1131500C8012CD297FFE0CFC1FD04C0B0CF812C1D
S1131510912C5401C7FF08C0B094A0949094809477
S1131520811C911CA11CB11C2C2FB501A401C70165
S113153039DF81E0DF91CF911F910F91FF90EF9000
S1131540BF90AF909F908F9008955F926F927F921B
S11315508F929F92AF92BF92CF92DF92EF92FF92BF
S11315600F931F93CF93DF93CDB7DEB7A0970FB63A
S1131570F894DEBF0FBECDBF5C01962E7A01F9014F
S11315808E010F5F1F4F680180E2D8011D928A957A
S1131590E9F7D50113968C9080E090E0612C712CD2
S11315A030E061E070E083FC259183FE21918F019E
S11315B0522E211103C080E090E090C02E3511F42A
S11315C0009751F1432F50E0481759073CF42D354B
S11315D059F12D3219F4772009F103C0772009F469
S11315E068C0452D469546954695D601A40FB11D74
S11315F0452D47708B0102C0000F111F4A95E2F779
S1131600A8015C91452B4C93651459F0561410F4C1
S11316105394E7CF5A94E5CF31E004C07724739410
S113162001C0712C0196BFCF772019F08E818062A2
S11316308E83311103C08824839417C0F6019E0160
S11316402F5D3F4F8081809581932E173F07D1F7FF
S1131650F2CFE114F10429F0D7018C93F70131960C
S11316607F019A94812C9920E9F0C50177D197FDE7
S113167017C0FC01FF2723E0F595E7952A95E1F7CC
S1131680EC0DFD1D208130E0AC014770552702C0F0
S1131690359527954A95E2F720FDDBCFB5019CD11E
S11316A0811089CFE114F10411F0D7011C92C80113
S11316B015C0422F469546954695D601A40FB11DF7
S11316C0422F47708B0102C0000F111F4A95E2F7A9
S11316D0A8015C91452B4C93622EA4CFA0960FB623
S11316E0F894DEBF0FBECDBFDF91CF911F910F9154
S11316F0FF90EF90DF90CF90BF90AF909F908F902E
S11317007F906F905F9008955F926F927F928F9217
S11317109F92AF92BF92CF92DF92EF92FF920F937C
S11317201F93CF93DF936C01EB015A01FC011782E5
S11317301682512CF601E380FE01E3FC8591E3FE61
S11317408191182FEF01882309F4E0C090E0F3D0D1
S1131750892B19F0C60159DEEDCF153241F4FE0193
S1131760E3FC1591E3FE1191EF01153271F4C6010A
S1131770F5D097FDC9C0412F50E09C0133272417B1
S11317803507C1F2B60128D1C1C01A3239F4E3FCDD
S11317901591E3FE1191EF0101E001C000E0F12C8D
S11317A020ED210F2A3078F402606F2D70E080E084
S11317B090E040E203DEF62EFE01E3FC1591E3FE29
S11317C01191EF01EDCF01FF03C0F11003C09EC0E2
S11317D0FF24FA94183619F01C3651F010C0FE019B
S11317E0E3FC1591E3FE1191EF01183641F4086012
S11317F00460FE01E3FC1591E3FE1191EF01112356
S113180009F484C0612F70E084EE90E09CD0892BB1
S113181009F47CC000FD07C0F50180809180C501FA
S113182002965C0102C0812C912C1E3649F4F6010B
S11318304681578160E070E0202FC401B3DD7ACF88
S11318401336A1F401FD02C0FF24F394C60186D02F
S113185097FD5AC08114910429F0F4018083C401D6
S113186001964C01FA94F110F1CF4AC01B3551F4A2
S11318709E01A4016F2DC60168DEEC01892B09F0DD
S11318803FC039C0C601C1DD97FD3EC01F3649F1D6
S113189028F4143621F1193639F125C0133771F0C3
S11318A01537E9F020C08114910429F0F401608215
S11318B0C40101964C01FA94FF2059F0C6014ED0A0
S11318C03C0197FD06C037D0892B69F3B601C301EB
S11318D083D081149104A1F0F401108211C000623C
S11318E003C0006101C00064202FA4016F2DC60154
S11318F0A2DD811105C0F6018381807329F406C03D
S113190000FD18CF539416CF552019F0852D90E083
S113191002C08FEF9FEFDF91CF911F910F91FF9046
S1131920EF90DF90CF90BF90AF909F908F907F907B
S11319306F905F900895911168C0803219F08950BA
S11319408550D0F70895FC010590061621F000207B
S1131950D9F7C00108953197CF010895CF93DF934C
S1131960EC012B8120FF33C026FF0AC02F7B2B8381
S11319708E819F8101969F838E838A8190E029C006
S113198022FF0FC0E881F9818081082E000C990B99
S1131990009719F420622B831AC03196F983E883E7
S11319A00EC0EA85FB85199597FF09C02B81019626
S11319B011F080E201C080E1822B8B8308C02E816C
S11319C03F812F5F3F4F3F832E83992702C08FEFC4
S11319D09FEFDF91CF910895FB01238120FF12C077
S11319E026FD10C08F3F3FEF930761F082832F7D68
S11319F0206423832681378121503109378326834C
S1131A00992708958FEF9FEF0895992788270895C0
S1071A10F894FFCF74
S1131A140000000000000A00E803000000000101C7
S1131A242569002D0063203D20257325642E25306F
S1091A3433640025640088
S9030000FC
