:1000000071C0000086C0000084C0000082C00000F3
:1000100080C000007EC000007CC000007AC00000EC
:1000200078C0000076C0000074C0000072C00000FC
:1000300070C000006EC000006CC000006AC000000C
:1000400068C0000066C0000064C0000062C000001C
:1000500060C000005EC000005CC000005AC000002C
:1000600058C0000056C0000054C0000052C000003C
:1000700050C000004EC000004CC000004AC000004C
:1000800048C0000046C0000044C0000042C000005C
:1000900040C000003EC000003CC000003AC000006C
:1000A00038C0000036C0000034C0000032C000007C
:1000B00030C000002EC000002CC000002AC000008C
:1000C00028C0000026C0000024C0000022C000009C
:1000D00020C000001EC000001CC000001AC00000AC
:1000E00018C0000011241FBECFEFD1E2DEBFCDBF8C
:1000F00000E00CBF12E0A0E0B2E0EAE9F3E000E0CB
:100100000BBF02C007900D92AC30B107D9F776D083
:1001100042C176CFE0ECF0E0908195FFFDCF809377
:10012000C6000895CF93DF93EC018881882329F0DE
:100130002196F0DF89918111FCCF8AE0EBDF8DE021
:10014000E9DFDF91CF9108950F931F93CF93DF9352
:10015000162FC42FD22F9C01990F440B550B60E42E
:1001600072E48FE090E0F5D0CA01B90152D08ED090
:1001700061507109113019F482E08093C0007093CE
:10018000CD006093C40088E18093C100023019F46F
:1001900088E08093C200D11106C0E2ECF0E08081DB
:1001A0008062808307C0D13029F4E2ECF0E08081E6
:1001B00080668083C63031F4E2ECF0E080818260BA
:1001C000808310C0C73031F4E2ECF0E080818460BD
:1001D00080830FC0C83031F4E2ECF0E080818660AB
:1001E000808307C0C93029F4E2ECF0E080818E60A2
:1001F0008083DF91CF911F910F91089500E020E05F
:1002000048E060E080E895E29FDF80E092E08ADFEE
:10021000FCCFE89409C097FB3EF4909580957095CB
:1002200061957F4F8F4F9F4F9923A9F0F92F96E942
:10023000BB279395F695879577956795B795F111B7
:10024000F8CFFAF4BB0F11F460FF1BC06F5F7F4F54
:100250008F4F9F4F16C0882311F096E911C0772366
:1002600021F09EE8872F762F05C0662371F096E86F
:10027000862F70E060E02AF09A95660F771F881F3E
:10028000DAF7880F9695879597F9089541D0A8F1E8
:100290009E57A8F1985160F039F1983070F5092E09
:1002A0009927660F771F881F991F0A94D1F71CC0E2
:1002B000BB27993F4CF4B111B1E0B62B672F782FD3
:1002C0008827985FB1F708C0869577956795B795A9
:1002D00008F4B1609395C1F7BB0F30F411F460FFDF
:1002E00003C06F5F7F4F8F4F3EF490958095709560
:1002F00061957F4F8F4F9F4F0895689424C022C00F
:1003000057FD9058440F551F59F05F3F71F04795C6
:10031000880F97FB991F61F09F3F79F087950895AB
:10032000121613061406551FF2CF4695F1DF08C0CA
:10033000161617061806991FF1CF869571056105E7
:1003400008940895E894BB2766277727CB0197F98F
:100350000895A1E21A2EAA1BBB1BFD010DC0AA1F06
:10036000BB1FEE1FFF1FA217B307E407F50720F01E
:10037000A21BB30BE40BF50B661F771F881F991F99
:100380001A9469F760957095809590959B01AC01E2
:0A039000BD01CF010895F894FFCFDE
:0C039A0048656C6C6F20576F726C64003B
:00000001FF
