S0120000556E6950726F6A6563742E737265630F
S113000071C0000079C0000077C0000075C0000016
S113001073C0000071C000006FC000006DC000001C
S11300206BC0000069C0000067C0000065C000002C
S113003063C0000061C000005FC000005DC000003C
S11300405BC0000059C0000057C0000055C000004C
S113005053C0000051C000004FC000004DC000005C
S11300604BC0000049C0000047C0000045C000006C
S113007043C0000041C000003FC000003DC000007C
S11300803BC0000039C0000037C0000035C000008C
S113009033C0000031C000002FC000002DC000009C
S11300A02BC0000029C0000027C0000025C00000AC
S11300B023C0000021C000001FC000001DC00000BC
S11300C01BC0000019C0000017C0000015C00000CC
S11300D013C0000011C000000FC000000DC00000DC
S11300E00BC0000011241FBECFEFD1E2DEBFCDBF95
S11300F000E00CBF06D1CFC283CFE0ECF0E09081EA
S113010095FFFDCF8093C6000895CF93DF93EC0154
S11301108881882329F02196F0DF89918111FCCF11
S11301208AE0EBDF8DE0E9DFDF91CF910895CF9393
S1130130DF93CDB7DEB728970FB6F894DEBF0FBEB6
S1130140CDBF4AE050E0BE016F5F7F4F67D2CE0162
S11301500196DBDF28960FB6F894DEBF0FBECDBF45
S1130160DF91CF9108950F931F93CF93DF93162FB1
S1130170C42FD22F9C01990F440B550B60E472E4F9
S11301808FE090E029D2CA01B901FBD060D161505F
S11301907109113019F482E08093C0007093CD008E
S11301A06093C40088E18093C100023019F488E0B0
S11301B08093C200D11106C0E2ECF0E0808180623D
S11301C0808307C0D13029F4E2ECF0E080818066BE
S11301D08083C63031F4E2ECF0E080818260808379
S11301E010C0C73031F4E2ECF0E080818460808399
S11301F00FC0C83031F4E2ECF0E080818660808387
S113020007C0C93029F4E2ECF0E080818E6080837D
S1130210DF91CF911F910F910895CF92DF92EF92CA
S1130220FF92CF93DF9385369105FCF4EC01609146
S1130230A6007091A70080E090E0A3D02AE037EDFB
S113024043E25CE33ED16B017C01BE01DD0F880B10
S1130250990B99D09B01AC01C701B60132D165D08D
S11302607093A9006093A80004C01092A900109292
S1130270A800DF91CF91FF90EF90DF90CF90089589
S11302800F931F93CF93DF938B019C01EA01E1EA63
S1130290F0E01082A1E0B1E09C9198609C93A0EA08
S11302A0B0E09C9192689C9390819861908360E007
S11302B074E284EF90E0A90198018ED12F3F8FEF73
S11302C038074105510558F4E1EAF0E08081816086
S11302D08083215031093093A7002093A600809198
S11302E0A6009091A700892B29F41092A9001092DE
S11302F0A80002C0CE0191DFDF91CF911F910F9131
S1130300089500E020E048E060E080E895E22BDF1B
S113031041E250E068EE73E080E090E0B1DFC6EACD
S1130320D0E08881998103DFFCCF70D088F09F579B
S113033090F0B92F9927B751A0F0D1F0660F771F2D
S1130340881F991F1AF0BA95C9F712C0B13081F00D
S113035077D0B1E0089574C0672F782F8827B85FED
S113036039F0B93FCCF3869577956795B395D9F76E
S11303703EF490958095709561957F4F8F4F9F4F78
S11303800895E89409C097FB3EF490958095709584
S113039061957F4F8F4F9F4F9923A9F0F92F96E9CD
S11303A0BB279395F695879577956795B795F11142
S11303B0F8CFFAF4BB0F11F460FF1BC06F5F7F4FDF
S11303C08F4F9F4F16C0882311F096E911C07723F1
S11303D021F09EE8872F762F05C0662371F096E8FA
S11303E0862F70E060E02AF09A95660F771F881FC9
S11303F0DAF7880F9695879597F9089557FD9058E1
S1130400440F551F59F05F3F71F04795880F97FBD4
S1130410991F61F09F3F79F087950895121613068E
S11304201406551FF2CF4695F1DF08C016161706BD
S11304301806991FF1CF86957105610508940895F2
S1130440E894BB2766277727CB0197F90895DEDF69
S1130450A8F19E57A8F1985160F039F1983070F5E1
S1130460092E9927660F771F881F991F0A94D1F7C1
S11304701CC0BB27993F4CF4B111B1E0B62B672FD8
S1130480782F8827985FB1F708C086957795679588
S1130490B79508F4B1609395C1F7BB0F30F411F42C
S11304A060FF03C06F5F7F4F8F4F3EF49095809540
S11304B0709561957F4F8F4F9F4F08956894C1CF7A
S11304C0BFCF0BD078C069D028F06ED018F0952338
S11304D009F05AC05FC01124B4CF90DFA0F3959FF8
S11304E0D1F3950F50E0551F629FF001729FBB2717
S11304F0F00DB11D639FAA27F00DB11DAA1F649FC3
S11305006627B00DA11D661F829F2227B00DA11D75
S1130510621F739FB00DA11D621F839FA00D611DFB
S1130520221F749F3327A00D611D231F849F600D1C
S1130530211D822F762F6A2F11249F5750408AF055
S1130540E1F088234AF0EE0FFF1FBB1F661F771FE1
S1130550881F91505040A9F79E3F510570F014C078
S113056070CF5F3FECF3983EDCF386957795679503
S1130570B795F795E7959F5FC1F7FE2B880F911DFF
S11305809695879597F9089597F99F6780E870E0A5
S113059060E008959FEF80EC089500240A941616F5
S11305A0170618060906089500240A94121613065D
S11305B0140605060895092E0394000C11F48823EB
S11305C052F0BB0F40F4BF2B11F460FF04C06F5F07
S11305D07F4F8F4F9F4F0895A1E21A2EAA1BBB1B7A
S11305E0FD010DC0AA1FBB1FEE1FFF1FA217B307FB
S11305F0E407F50720F0A21BB30BE40BF50B661F11
S1130600771F881F991F1A9469F7609570958095D4
S113061090959B01AC01BD01CF0108954532510570
S113062018F4423008F004C0FB011082CB01089595
S1130630BB274A3031F4992322F4BDE29095819589
S11306409F4F01C0BB27FB015527AA27880F991F7D
S1130650AA1FA41710F0A41B83955051B9F7A05DED
S1130660AA3308F0A95DA193009779F7B111B1936A
S11306701192CB0100C0DC01FC01672F719177233B
S1130680E1F7329704C07C916D9370836291AE1749
S10D0690BF07C8F30895F894FFCFE4
S9030000FC
