:1000000071C000008EC000008CC000008AC00000DB
:1000100057C2000086C0000084C0000082C00000FB
:1000200080C000007EC000007CC000007AC00000DC
:1000300078C0000076C0000074C0000072C00000EC
:1000400070C000006EC000006CC000006AC00000FC
:1000500068C0000066C0000064C0000062C000000C
:1000600060C0000002C300005CC000005AC0000075
:1000700058C0000056C0000054C0000052C000002C
:1000800050C000004EC000004CC000004AC000003C
:1000900048C0000046C0000044C0000042C000004C
:1000A00040C000003EC000003CC000003AC000005C
:1000B00038C0000036C00000F7C1000032C00000A8
:1000C00030C000002EC0000078C200002AC000002E
:1000D00028C0000026C0000024C0000022C000008C
:1000E00020C0000011241FBECFEFD1E2DEBFCDBF84
:1000F00000E00CBF12E0A0E0B2E0E4E0F1E100E0DB
:100100000BBF02C007900D92A031B107D9F722E0D2
:10011000A0E1B2E001C01D92A533B207E1F78AD198
:10012000EFC76ECFE0ECF0E0908195FFFDCF8093BC
:10013000C60008958AE0F6DF8DE0F4CF0895CF93EE
:10014000DF93EC018881882329F02196EBDF8991E8
:100150008111FCCFEFDFDF91CF9108950F931F93B3
:10016000CF93DF93CDB7DEB72C970FB6F894DEBFF1
:100170000FBECDBF9F938F937F936F938CE092E0E0
:100180009F938F938E010F5F1F4F1F930F93DDD4AB
:10019000C801D5DF0FB6F894DEBF0FBECDBF2C96D9
:1001A0000FB6F894DEBF0FBECDBFDF91CF911F9188
:1001B0000F9108950F931F93CF93DF93162FC42FA2
:1001C000D22F9C01990F440B550B60E472E48FE031
:1001D00090E080D4CA01B9012ED3DFD361507109F8
:1001E000113019F482E08093C0007093CD006093C9
:1001F000C40088E98093C100023019F488E080933C
:10020000C200D11106C0E2ECF0E080818062808300
:1002100007C0D13029F4E2ECF0E080818066808371
:10022000C63031F4E2ECF0E080818260808310C05F
:10023000C73031F4E2ECF0E08081846080830FC04D
:10024000C83031F4E2ECF0E080818660808307C042
:10025000C93029F4E2ECF0E080818E608083DF9188
:10026000CF911F910F910895CF92DF92EF92FF925D
:100270006B017C0120E030E048EC52E4A7D2181674
:10028000ACF06091A6007091A70080E090E0D3D21E
:100290002AE037ED43E25CE3BAD3A7019601B7D376
:1002A0009ED27093A9006093A80004C01092A90088
:1002B0001092A800FF90EF90DF90CF9008950F93D9
:1002C0001F93CF93DF938B019C01EA01E1EAF0E0F9
:1002D0001082A1E0B1E08C9188608C93A0EAB0E03C
:1002E0008C9182688C9380818861808360E074E265
:1002F00084EF90E0A9019801EDD389019A010115DD
:10030000110561E02607310538F1D901C80141E046
:1003100050E0B695A795979587954F5F5F4F0097EB
:1003200061E0A607B105A8F74630510514F045E095
:1003300050E04330510581F13CF44130510561F00A
:1003400042305105A9F060C044305105C9F1453033
:10035000510509F445C058C0E1EAF0E080818160B0
:100360008083015011091093A7000093A6004CC090
:10037000E1EAF0E0808182608083689412F836952B
:100380002795179507951694D1F7015011091093E9
:10039000A7000093A60038C0E1EAF0E08081836006
:1003A0008083689415F836952795179507951694C8
:1003B000D1F7015011091093A7000093A60024C0A3
:1003C000E1EAF0E0808184608083012F122F232FE7
:1003D0003327015011091093A7000093A60014C001
:1003E000E1EAF0E08081856080830F2EFAE03695A7
:1003F000279517950795FA95D1F7F02D0F5F1F4FA9
:100400001093A7000093A6008091A6009091A700EA
:10041000892B29F41092A9001092A80006C0BE01F1
:10042000DD0F880B990B09D21FDFDF91CF911F9150
:100430000F910895E1E0F1E0808180618083E2E046
:10044000F1E08081806180835B9AE3E7F0E0808166
:10045000816080831092200181E0809321018FEFE1
:1004600095E09093250180932401E9E6F0E08081F6
:1004700080648083EB9A789400E020E048E060E0BC
:1004800080E895E297DEE6E0F2E0628173818481A4
:100490009581C081D1819ED19B01AC01BE0180E0DC
:1004A00090E0A9010CDFFFCF1F920F920FB60F92C1
:1004B0001124F89478940F900FBE0F901F90189508
:1004C0001F920F920FB60F9211240BB60F92CF927C
:1004D000DF92EF92FF920F931F932F933F934F93CF
:1004E0005F936F937F938F939F93AF93BF93CF93BC
:1004F000DF93EF93FF93E0E0F2E084819581019632
:1005000095838483848195810A97E0F1C0E1D2E0EC
:10051000288139814A815B8104E211E0D801ED91A3
:10052000FC91C888D988EA88FB88A0E0BAEFF4D2A9
:10053000DC01CB018E0F9F1FA11DB11DC80ED91E5E
:10054000EA1EFB1EC88AD98AEA8AFB8A2889398969
:100550004A895B8960E07CE886E897E4BBD2E0E00A
:10056000F2E03183208315821482188219821A8264
:100570001B82188A198A1A8A1B8A8FEF95E0F80164
:1005800091838083FF91EF91DF91CF91BF91AF91E4
:100590009F918F917F916F915F914F913F912F919B
:1005A0001F910F91FF90EF90DF90CF900F900BBEB7
:1005B0000F900FBE0F901F9018951F920F920FB6BD
:1005C0000F9211240BB60F922F933F934F935F938B
:1005D0006F937F938F939F93AF93BF93EF93FF930B
:1005E0008FEF95E09093250180932401E0E1F2E004
:1005F00080819181A281B3810196A11DB11D80836B
:100600009183A283B38384859585A685B78501965A
:10061000A11DB11D84879587A687B7878D37910562
:10062000A105B10578F010921C0210921D021092E3
:100630001E0210921F02609100027091010280E080
:1006400090E08CDDFF91EF91BF91AF919F918F91E1
:100650007F916F915F914F913F912F910F900BBEC2
:100660000F900FBE0F901F9018951F920F920FB60C
:100670000F9211240BB60F922F933F934F935F93DA
:100680006F937F938F939F93AF93BF93CF93DF939A
:10069000EF93FF93E0913402F0E0A6ECB0E08C9190
:1006A000EC5DFD4F80838C918B3289F4C6E0D2E003
:1006B0006A817B818C819D8120E030E040E85FE3AE
:1006C00021D06A837B838C839D83CEDD05C0E4E2E9
:1006D000F2E080898F5F808BFF91EF91DF91CF9166
:1006E000BF91AF919F918F917F916F915F914F914A
:1006F0003F912F910F900BBE0F900FBE0F901F9048
:1007000018955058BB27AA270ED00DC1FED030F047
:1007100003D120F031F49F3F11F41EF4F3C00EF426
:10072000E095E7FBE9C0E92F0FD180F3BA17620724
:1007300073078407950718F071F49EF527C10EF42E
:10074000E0950B2EBA2FA02D0B01B90190010C01E1
:10075000CA01A0011124FF27591B99F0593F50F4F9
:10076000503E68F11A16F040A22F232F342F442751
:10077000585FF3CF469537952795A795F040539549
:10078000C9F77EF41F16BA0B620B730B840BBAF019
:100790009150A1F0FF0FBB1F661F771F881FC2F784
:1007A0000EC0BA0F621F731F841F48F48795779598
:1007B0006795B795F7959E3F08F0B3CF9395880F4F
:1007C00008F09927EE0F97958795089571D008F452
:1007D00081E0089504D06894B111D9C00895BCD0C7
:1007E00088F09F5790F0B92F9927B751A0F0D1F01A
:1007F000660F771F881F991F1AF0BA95C9F712C0A4
:10080000B13081F0C3D0B1E00895C0C0672F782F18
:100810008827B85F39F0B93FCCF38695779567950F
:10082000B395D9F73EF490958095709561957F4F7B
:100830008F4F9F4F0895E89409C097FB3EF4909521
:100840008095709561957F4F8F4F9F4F9923A9F0A9
:10085000F92F96E9BB279395F69587957795679538
:10086000B795F111F8CFFAF4BB0F11F460FF1BC07C
:100870006F5F7F4F8F4F9F4F16C0882311F096E90F
:1008800011C0772321F09EE8872F762F05C06623BD
:1008900071F096E8862F70E060E02AF09A95660F76
:1008A000771F881FDAF7880F9695879597F908952F
:1008B000990F0008550FAA0BE0E8FEEF1616170671
:1008C000E807F907C0F012161306E407F50798F0D9
:1008D000621B730B840B950B39F40A2661F0232BF2
:1008E000242B252B21F408950A2609F4A140A6956E
:1008F0008FEF811D811D089597F99F6780E870E053
:1009000060E008959FEF80EC089500240A94161685
:10091000170618060906089500240A9412161306ED
:10092000140605060895092E0394000C11F488237B
:1009300052F0BB0F40F4BF2B11F460FF04C06F5F97
:100940007F4F8F4F9F4F089557FD9058440F551F6D
:1009500059F05F3F71F04795880F97FB991F61F041
:100960009F3F79F087950895121613061406551FB8
:10097000F2CF4695F1DF08C0161617061806991F24
:10098000F1CF86957105610508940895E894BB2719
:1009900066277727CB0197F90895DEDFA8F19E57E8
:1009A000A8F1985160F039F1983070F5092E992727
:1009B000660F771F881F991F0A94D1F71CC0BB27A9
:1009C000993F4CF4B111B1E0B62B672F782F8827EF
:1009D000985FB1F708C0869577956795B79508F445
:1009E000B1609395C1F7BB0F30F411F460FF03C001
:1009F0006F5F7F4F8F4F3EF4909580957095619516
:100A00007F4F8F4F9F4F08956894C1CFBFCF0BD0BA
:100A10008ACF7BDF28F080DF18F0952309F06CCFB8
:100A200071CF1124B4CF90DFA0F3959FD1F3950F30
:100A300050E0551F629FF001729FBB27F00DB11D62
:100A4000639FAA27F00DB11DAA1F649F6627B00DF2
:100A5000A11D661F829F2227B00DA11D621F739FDB
:100A6000B00DA11D621F839FA00D611D221F749FE9
:100A70003327A00D611D231F849F600D211D822F30
:100A8000762F6A2F11249F5750408AF0E1F0882377
:100A90004AF0EE0FFF1FBB1F661F771F881F915084
:100AA0005040A9F79E3F510570F026CF70CF5F3FB1
:100AB000ECF3983EDCF3869577956795B795F795B7
:100AC000E7959F5FC1F7FE2B880F911D969587953F
:100AD00097F90895A1E21A2EAA1BBB1BFD010DC0B8
:100AE000AA1FBB1FEE1FFF1FA217B307E407F507DE
:100AF00020F0A21BB30BE40BF50B661F771F881FBA
:100B0000991F1A9469F760957095809590959B014F
:100B1000AC01BD01CF01089509D0A59F900DB49FF0
:100B2000900DA49F800D911D11240895A29FB001E6
:100B3000B39FC001A39F700D811D1124911DB29F11
:100B4000700D811D1124911D08950F931F93CF9354
:100B5000DF93CDB7DEB72E970FB6F894DEBF0FBE8A
:100B6000CDBF0E891F8986E08C831A8309838FEF9E
:100B70009FE79E838D83AE01465E5F4F688D798DC2
:100B8000CE01019610D0EF81F885E00FF11F1082A1
:100B90002E960FB6F894DEBF0FBECDBFDF91CF917A
:100BA0001F910F9108952F923F924F925F926F92F3
:100BB0007F928F929F92AF92BF92CF92DF92EF92ED
:100BC000FF920F931F93CF93DF93CDB7DEB72B9791
:100BD0000FB6F894DEBF0FBECDBF6C017B018A015A
:100BE000FC0117821682838181FFBFC1CE0101966D
:100BF0003C01F6019381F70193FD859193FF81916B
:100C00007F01882309F4ADC1853239F493FD8591C4
:100C100093FF81917F01853221F4B60190E0D6D116
:100C2000E8CF912C212C312CFFE1F315D8F08B3239
:100C300079F038F4803279F08332A1F4232D2061E9
:100C40001DC08D3261F0803369F4232D216016C000
:100C5000832D8260382EE32DE4603E2E2AC0F32DD2
:100C6000F8601DC037FC2DC020ED280F2A3040F061
:100C70008E32B9F436FC75C1232D2064322E19C092
:100C800036FE06C08AE0989E200D1124922E11C0D7
:100C9000EAE02E9E200D1124222EF32DF0623F2E2D
:100CA00008C08C3621F4832D8068382E02C0883627
:100CB00041F4F70193FD859193FF81917F018111AB
:100CC000B3CF982F9F7D9554933028F40C5F1F4F1E
:100CD0009FE399830DC0833631F0833771F08335FC
:100CE00009F055C020C0F801808189830E5F1F4F35
:100CF00088248394912C530112C02801F2E04F0EF6
:100D0000511CF801A080B18036FE03C0692D70E04F
:100D100002C06FEF7FEFC5014ED14C018201F32D70
:100D2000FF773F2E15C0280122E0420E511CF8012A
:100D3000A080B18036FE03C0692D70E002C06FEF65
:100D40007FEFC5012DD14C01F32DF0683F2E8201BC
:100D500033FC19C0822D90E088169906A0F4B601E4
:100D600080E290E033D12A94F5CFF50137FC8591EC
:100D700037FE81915F01B60190E028D121102A94BD
:100D800021E0821A91088114910479F7E1C0843638
:100D900011F0893639F5F80137FE07C0608171819D
:100DA000828193810C5F1F4F08C060817181072E83
:100DB000000C880B990B0E5F1F4FF32DFF763F2E13
:100DC00097FF09C090958095709561957F4F8F4FE3
:100DD0009F4FF0683F2E2AE030E0A30133D1882EE8
:100DE000861844C0853731F4232D2F7EB22E2AE099
:100DF00030E025C0932D997FB92E8F36C1F018F4BD
:100E0000883579F0AEC0803719F0883721F0A9C055
:100E1000E92FE061BE2EB4FE0DC0FB2DF460BF2EA5
:100E200009C034FE0AC0292F2660B22E06C028E071
:100E300030E005C020E130E002C020E132E0F801FE
:100E4000B7FE07C060817181828193810C5F1F4F63
:100E500006C06081718180E090E00E5F1F4FA301AA
:100E6000F1D0882E8618FB2DFF773F2E36FE0DC061
:100E7000232D2E7FA22E891458F434FE0BC032FC91
:100E800009C0832D8E7EA82E05C0B82CA32C03C0CC
:100E9000B82C01C0B92CA4FE0FC0FE01E80DF11D55
:100EA0008081803321F49A2D997EA92E09C0A2FE5B
:100EB00006C0B394B39404C08A2D867809F0B39425
:100EC000A3FC10C0A0FE06C0B21480F4280C922C23
:100ED0009B180DC0B21458F4B60180E290E076D0B1
:100EE000B394F8CFB21418F42B1802C0982C212C0C
:100EF000A4FE0FC0B60180E390E068D0A2FE16C049
:100F0000A1FC03C088E790E002C088E590E0B6014C
:100F10000CC08A2D867851F0A1FE02C08BE201C080
:100F200080E2A7FC8DE2B60190E050D0891430F445
:100F3000B60180E390E04AD09A94F8CF8A94F30106
:100F4000E80DF11D8081B60190E040D08110F6CF10
:100F5000222009F44ECEB60180E290E037D02A94E8
:100F6000F7CFF6018681978102C08FEF9FEF2B9616
:100F70000FB6F894DEBF0FBECDBFDF91CF911F91AA
:100F80000F91FF90EF90DF90CF90BF90AF909F9028
:100F90008F907F906F905F904F903F902F9008952B
:100FA000FC010590615070400110D8F78095909534
:100FB0008E0F9F1F0895FC01615070400190011039
:100FC000D8F7809590958E0F9F1F08950F931F93CC
:100FD000CF93DF93FB01238121FD03C08FEF9FEFB0
:100FE0002CC022FF16C046815781248135814217CB
:100FF000530744F4A081B1819D012F5F3F4F31839E
:1010000020838C93268137812F5F3F4F3783268340
:1010100014C08B01EC01FB010084F185E02D1995D2
:10102000892BE1F6D80116968D919C911797019620
:1010300017969C938E931697CE01DF91CF911F91B7
:101040000F910895FA01AA27283051F1203181F13A
:10105000E8946F936E7F6E5F7F4F8F4F9F4FAF4FC0
:10106000B1E03ED0B4E03CD0670F781F891F9A1FD3
:10107000A11D680F791F8A1F911DA11D6A0F711D87
:10108000811D911DA11D20D009F468943F912AE093
:10109000269F11243019305D3193DEF6CF0108957B
:1010A000462F4770405D4193B3E00FD0C9F7F6CFAC
:1010B000462F4F70405D4A3318F0495D31FD405274
:1010C000419302D0A9F7EACFB4E0A695979587950A
:1010D00077956795BA95C9F70097610571050895E9
:1010E0009B01AC010A2E0694579547953795279595
:1010F000BA95C9F7620F731F841F951FA01D08952D
:04110000F894FFCF91
:101104000000C4090000C40900007041256C75008A
:00000001FF
