:1000000077C0000095C0000093C0000091C00000C0
:100010000DC400008DC000008BC0000089C000002E
:1000200087C0000085C0000083C0000081C00000C0
:100030007FC000007DC000007BC0000079C00000D0
:1000400077C0000075C0000073C0000071C00000E0
:10005000A3C600006DC000006BC00000A9C4000072
:1000600067C000009BC5000063C0000061C00000C5
:100070005FC000005DC000005BC0000059C0000010
:1000800057C0000055C0000053C0000051C0000020
:100090004FC000004DC000004BC0000049C0000030
:1000A00047C0000045C0000043C0000041C0000040
:1000B0003FC000003DC000003BC0000039C0000050
:1000C00037C0000035C0000031C4000031C000005E
:1000D0002FC000002DC000002BC0000029C0000070
:1000E00027C000006364696E6F70737578585B0099
:1000F00011241FBECFEFD1E2DEBFCDBF00E00CBFA9
:1001000012E0A0E0B2E0E8E9FAE100E00BBF02C0D3
:1001100007900D92AE32B107D9F722E0AEE2B2E01D
:1001200001C01D92AF39B207E1F750D30C944A0DCC
:1001300067CFE0ECF0E0908195FFFDCF8093C600A3
:1001400008958AE0F6DF8DE0F4CF0895CF93DF9332
:10015000EC018881882329F02196EBDF89918111B8
:10016000FCCFEFDFDF91CF9108958F929F92AF92F6
:10017000BF92EF92CF93DF934B015C01D42FC22F3C
:1001800060E472E48FE090E0A50194010E94B80958
:10019000CA01B9019AD70E941B0961507109D13077
:1001A00019F482E08093C0001092C5006093C400EF
:1001B00088E98093C10082E0E81203C088E0809360
:1001C000C200C63031F4E2ECF0E0808182608083CE
:1001D0000FC0C73031F4E2ECF0E0808184608083AE
:1001E00007C0C93029F4E2ECF0E080818E608083A2
:1001F000DF91CF91EF90BF90AF909F908F90089537
:10020000CF92DF92EF92FF926B017C0120E030E011
:1002100048EC52E42AD71816BCF06091A600709101
:10022000A70080E090E051D72AE037ED43E25CE39D
:100230000E945509A70196010E9455091AD770938B
:10024000A9006093A8001AC020E030E0A901C7010E
:10025000B6010BD718162CF01092A9001092A80026
:100260000DC020E030E048EC52E4C701B601DFD712
:10027000181624F41092A9001092A800FF90EF9095
:10028000DF90CF9008958F929F92AF92BF92CF92BE
:10029000DF92EF92FF920F931F934B015C01690174
:1002A0007A01E1EAF0E01082A1E0B1E08C9188608F
:1002B0008C93A0EAB0E08C9182688C9380818861F5
:1002C000808360E074E284EF90E0A50194010E94D5
:1002D000B80989019A010115110561E02607310568
:1002E00038F1D901C80141E050E0B695A79597953E
:1002F00087954F5F5F4F009761E0A607B105A8F7AC
:100300004630510514F045E050E04330510581F18D
:100310003CF44130510561F042305105A9F060C014
:1003200044305105C9F14530510509F445C058C064
:10033000E1EAF0E08081816080830150110910932F
:10034000A7000093A6004CC0E1EAF0E08081826043
:100350008083689412F8369527951795079516941B
:10036000D1F7015011091093A7000093A60038C0DF
:10037000E1EAF0E0808183608083689415F8369527
:100380002795179507951694D1F7015011091093E9
:10039000A7000093A60024C0E1EAF0E08081846019
:1003A0008083012F122F232F33270150110910931F
:1003B000A7000093A60014C0E1EAF0E08081856008
:1003C00080830F2EFAE03695279517950795FA95B5
:1003D000D1F7F02D0F5F1F4F1093A7000093A600D9
:1003E0008091A6009091A700892B29F41092A90072
:1003F0001092A80003C0C701B60102DF1F910F9140
:10040000FF90EF90DF90CF90BF90AF909F908F9034
:100410000895E3E7F0E080818160808381E080934C
:1004200021018FEF95E09093250180932401089599
:100430002F923F924F925F926F927F928F929F92F4
:10044000AF92BF92CF92DF92EF92FF920F931F93E2
:10045000CF93DF93CDB7DEB72C970FB6F894DEBFFE
:100460000FBECDBFDC012C912A3009F496C17C016E
:10047000FC01812C912C00E010E00F2EF0E06F2E9B
:10048000F2E07F2EF02D2E01BBE04B0E511C0F2E03
:10049000F1E22F2EF2E03F2EF02DCE0101965C010D
:1004A0008081833529F4D30113961C921E921297F2
:1004B00080818235E9F5F8013196EE0DFF1D8081CE
:1004C0008833B1F56801B2E0CB0ED11CC7018C0DA9
:1004D0009D1DFC0120812C37B1F0D501A80DB91D5F
:1004E0000D5F1F4F081B190B80818D938FEFC81A6A
:1004F000D80A4D018A189B08E00FF11FEE0DFF1D71
:1005000080818C3789F75F924F923F922F92BF92F2
:10051000AF9269D78B859C85D30113969C938E935C
:1005200012970F900F900F900F900F900F908601E1
:10053000F701E00FF11F80818635F1F4F801319663
:10054000EE0DFF1D80818033B9F40E5F1F4F6701F0
:10055000C00ED11EF6018081893529F4ACE7B2E0E6
:10056000ED91FC911995F60180818E3429F4E0918A
:100570008C02F0918D021995F701E00FF11F808137
:100580008635F1F4F8013196EE0DFF1D808181333F
:10059000B9F40E5F1F4F6701C00ED11ED6018C91BA
:1005A000893529F4E0917E02F0917F021995F601D8
:1005B00080818E3429F4E0918E02F0918F0219959A
:1005C000F701E00FF11F80818635F1F4F8013196D3
:1005D000EE0DFF1D80818233B9F40E5F1F4F67015E
:1005E000C00ED11ED6018C91893529F4E09180028C
:1005F000F09181021995F60180818E3429F4E09101
:100600009002F09191021995F701E00FF11F80819E
:100610008635F1F4F8013196EE0DFF1D80818333AC
:10062000B9F40E5F1F4F6701C00ED11ED6018C9129
:10063000893529F4E0918202F09183021995F6013F
:1006400080818E3429F4E0919202F0919302199501
:10065000F701E00FF11F80818635F1F4F801319642
:10066000EE0DFF1D80818433B9F40E5F1F4F6701CB
:10067000C00ED11ED6018C91893529F4E0918402F7
:10068000F09185021995F60180818E3429F4E0916C
:100690009402F09195021995F701E00FF11F808106
:1006A0008635F1F4F8013196EE0DFF1D808185331A
:1006B000B9F40E5F1F4F6701C00ED11ED6018C9199
:1006C000893529F4E0918602F09187021995F601A7
:1006D00080818E3429F4E0919602F0919702199569
:1006E000F701E00FF11F80818635B1F4F8013196F2
:1006F000EE0DFF1D8081863379F40E5F1F4F670179
:10070000C00ED11ED6018C91893509F49FD2F60115
:1007100080818E3409F491D2F701E00FF11F8081BE
:100720008635B1F4F8013196EE0DFF1D80818733D7
:1007300079F40E5F1F4F6701C00ED11ED6018C9158
:10074000893509F4B3D2F60180818E3409F4A5D23B
:10075000F701E00FF11F80818635B1F4F801319681
:10076000EE0DFF1D8081883379F40E5F1F4F670106
:10077000C00ED11ED6018C91893509F4C9D2F6017B
:1007800080818E3409F4B8D20F5F1F4FF701E00F5C
:10079000F11F80818A3009F083CE2C960FB6F89431
:1007A000DEBF0FBECDBFDF91CF911F910F91FF90A4
:1007B000EF90DF90CF90BF90AF909F908F907F9001
:1007C0006F905F904F903F902F900895099A829A72
:1007D000E1E0F1E0808180618083EEE6F0E08081FD
:1007E0008160808385B5856085BDE9E6F0E0808124
:1007F00080648083EB9A78940CDE30D25FD293D2FF
:10080000E12C00E028E040E060E271EA87E090E05F
:10081000ACDCE8E0F2E022813381448155816081E3
:10082000718180E090E02FDD78D3FFCF1F920F928F
:100830000FB60F9211240BB60F92CF92DF92EF9268
:10084000FF920F931F932F933F934F935F936F9359
:100850007F938F939F93AF93BF93CF93DF93EF9348
:10086000FF93E0E0F2E08481958101969583848393
:10087000248135818681978128173907E0F1C1E30A
:10088000D2E0288139814A815B8104E211E0D801FC
:10089000ED91FC91C888D988EA88FB88A0E0BAEF7E
:1008A00089D5DC01CB018E0F9F1FA11DB11DC80E84
:1008B000D91EEA1EFB1EC88AD98AEA8AFB8A2889C1
:1008C00039894A895B8960E07CE886E897E450D5FD
:1008D000E0E0F2E0318320831582148218821982CD
:1008E0001A821B82188A198A1A8A1B8A8FEF95E04E
:1008F000F80191838083FF91EF91DF91CF91BF91B8
:10090000AF919F918F917F916F915F914F913F91A7
:100910002F911F910F91FF90EF90DF90CF900F904C
:100920000BBE0F900FBE0F901F9018951F920F9245
:100930000FB60F9211240BB60F922F933F934F9344
:100940005F936F937F938F939F93AF93BF93EF9337
:10095000FF9380913002813029F485E492E068DDD4
:10096000109230028FEF95E090932501809324013F
:10097000E1E3F2E080819181A281B3810196A11D22
:10098000B11D80839183A283B383FF91EF91BF91C7
:10099000AF919F918F917F916F915F914F913F9117
:1009A0002F910F900BBE0F900FBE0F901F901895B8
:1009B0001F920F920FB60F9211240BB60F92CF9287
:1009C000DF92EF92FF920F931F932F933F934F93DA
:1009D0005F936F937F938F939F93AF93BF93CF93C7
:1009E000DF93EF93FF9383E886BD80912E02909171
:1009F0002F02019690932F0280932E028D3791053E
:100A000038F084E292E0A2DB10922F0210922E02C4
:100A1000E1E3F2E084859585A685B7850196A11D61
:100A2000B11D84879587A687B7874997A105B1052A
:100A300008F499C010923D0210923E0210923F02BB
:100A40001092400280910202909103020B974CF4A5
:100A500060E070E0CB01D4DB109201021092000242
:100A600082C0C0E0D2E06A817B818881998108E000
:100A700012E0F801C280D380E480F580681B790B16
:100A8000072E000C880B990B22D32FE632E143E8A6
:100A90005AE30BD4A701960184D2F80162837383D1
:100AA00084839583ADDB288139818A819B812817D6
:100AB00039075CF58A819B8128813981C0900A02BF
:100AC000D0900B02E0900C02F0900D02821B930B71
:100AD000BC0122F466277727681B790B072E000CD0
:100AE000880B990BF4D22FE632E143E05AE3DDD3D1
:100AF000A701960156D260930A0270930B0280936D
:100B00000C0290930D027CDB2EC0E0E0F2E08281CB
:100B1000938120813181C0900A02D0900B02E09035
:100B20000C02F0900D02821B930BBC0122F466278D
:100B30007727681B790B072E000C880B990BC7D2FF
:100B40002FE632E143E05AE3B0D39B01AC01C70189
:100B5000B60126D260930A0270930B0280930C02B6
:100B600090930D024DDBFF91EF91DF91CF91BF91FB
:100B7000AF919F918F917F916F915F914F913F9135
:100B80002F911F910F91FF90EF90DF90CF900F90DA
:100B90000BBE0F900FBE0F901F9018951F920F92D3
:100BA0000FB60F9211240BB60F928F93AF93BF9392
:100BB000EF93FF93A5E4B2E0D596EC91D597F0E0E2
:100BC0008091C600EB5BFD4F8083D596EC91F0E001
:100BD000EB5BFD4F80818A3031F410927A0281E024
:100BE0008093300209C0E5E4F2E085A98F5F85AB10
:100BF0008D3210F010927A02FF91EF91BF91AF9178
:100C00008F910F900BBE0F900FBE0F901F901895F5
:100C1000E1E0F1E080818F7B80830895E1E0F1E005
:100C200080818064808308958EE18093B400F6DF34
:100C300082E080939C0284C0089588E18093B40090
:100C400081E080939C02EADF8DC0089587E2809363
:100C5000B40010929C02E2DF85C008952798E1E07D
:100C6000F1E080818F7B8083E0EBF0E08081836224
:100C70008083E1EBF0E0808187608083D5CF0895A9
:100C800024980895249A08958EE18093B300FADFA2
:100C900082E080939D0254C0089588E18093B30060
:100CA000F1DF81E080939D025DC0089587E280932B
:100CB000B30010929D02E6DF55C00895269824984F
:100CC000E0EBF0E0808183688083E1EBF0E08081FD
:100CD00087608083D9CF08956B9808956B9A0895A3
:100CE0008EE190E09093990080939800F7DF82E086
:100CF00080939E0225C0089588E190E0909399002A
:100D000080939800EBDF81E080939E022BC00895D2
:100D100087E290E0909399008093980010929E0251
:100D2000DDDF20C008956B98E0E9F0E08081816804
:100D30008083E1E9F0E080818D608083D1CF0895E8
:100D4000119A8EEE95E89093850080938400EFE6EB
:100D5000F0E0808181608083E1E8F0E08081846060
:100D6000808308951092850010928400EFE6F0E0F1
:100D7000808181608083E1E8F0E08081846080830D
:100D80000895EFE6F0E080818E7F8083E1E8F0E077
:100D900080818B7F808308951F920F920FB60F92F0
:100DA00011240BB60F922F933F934F935F936F9342
:100DB0007F938F939F93AF93BF93EF93FF93809114
:100DC0009D02823019F4DDDF71DF02C0DADF58DF07
:100DD00080919C02823019F4D4DF38DF02C0D1DF69
:100DE00017DF80919E02823019F4CBDF91DF02C0C1
:100DF000C8DF72DFFF91EF91BF91AF919F918F910B
:100E00007F916F915F914F913F912F910F900BBE0A
:100E10000F900FBE0F901F901895809A889A089592
:100E2000819A899A0895849A8C9A0895E7E0F1E06E
:100E3000808181608083E8E0F1E08081816080834F
:100E40000895E7E0F1E0808180648083E8E0F1E0EC
:100E50008081806480830895E7E0F1E0808180688C
:100E60008083E8E0F1E08081806880830895E7E096
:100E7000F1E0808180618083E8E0F1E08081806141
:100E800080830895E7E0F1E0808180628083E8E07C
:100E9000F1E0808180628083089580988898089529
:100EA00081988998089584988C980895E7E0F1E0F6
:100EB00080818E7F8083E8E0F1E080818E7F808377
:100EC0000895E7E0F1E080818F7B8083E8E0F1E046
:100ED00080818F7B80830895E7E0F1E080818F77C8
:100EE0008083E8E0F1E080818F7780830895E7E0F8
:100EF000F1E080818F7E8083E8E0F1E080818F7E69
:100F000080830895E7E0F1E080818F7D8083E8E0D1
:100F1000F1E080818F7D80830895ECE7F2E08DE041
:100F200097E09183808380E197E09383828383E1DC
:100F300097E09583848386E197E09783868381E2B7
:100F400097E0918780878CE297E09387828787E399
:100F500097E09587848782E497E0978786878DE47A
:100F600097E0918B808B80E597E0938B828B83E574
:100F700097E0958B848B86E597E0978B868B81E64F
:100F800097E0918F808F8CE697E0938F828F87E731
:100F900097E0958F848F82E897E0978F868F0895EA
:100FA0005058BB27AA270ED008C1F9D030F0FED088
:100FB00020F031F49F3F11F41EF4EEC00EF4E095E2
:100FC000E7FBE4C0E92F0AD180F3BA176207730781
:100FD0008407950718F071F49EF522C10EF4E09590
:100FE0000B2EBA2FA02D0B01B90190010C01CA01E3
:100FF000A0011124FF27591B99F0593F50F4503E8E
:1010000068F11A16F040A22F232F342F4427585F7F
:10101000F3CF469537952795A795F0405395C9F797
:101020007EF41F16BA0B620B730B840BBAF091504F
:10103000A1F0FF0FBB1F661F771F881FC2F70EC0EE
:10104000BA0F621F731F841F48F4879577956795C1
:10105000B795F7959E3F08F0B3CF9395880F08F0AA
:101060009927EE0F9795879508956CD008F481E045
:101070000895BCD088F09F5790F0B92F9927B751A9
:10108000A0F0D1F0660F771F881F991F1AF0BA954C
:10109000C9F712C0B13081F0C3D0B1E00895C0C02B
:1010A000672F782F8827B85F39F0B93FCCF3869542
:1010B00077956795B395D9F73EF49095809570959F
:1010C00061957F4F8F4F9F4F0895E89409C097FB1C
:1010D0003EF490958095709561957F4F8F4F9F4F0F
:1010E0009923A9F0F92F96E9BB279395F695879553
:1010F00077956795B795F111F8CFFAF4BB0F11F416
:1011000060FF1BC06F5F7F4F8F4F9F4F16C08823BC
:1011100011F096E911C0772321F09EE8872F762FF2
:1011200005C0662371F096E8862F70E060E02AF033
:101130009A95660F771F881FDAF7880F969587951F
:1011400097F90895990F0008550FAA0BE0E8FEEFF4
:1011500016161706E807F907C0F012161306E4077B
:10116000F50798F0621B730B840B950B39F40A2674
:1011700061F0232B242B252B21F408950A2609F452
:10118000A140A6958FEF811D811D089597F99F6756
:1011900080E870E060E008959FEF80EC08950024FF
:1011A0000A941616170618060906089500240A94CC
:1011B00012161306140605060895092E0394000C52
:1011C00011F4882352F0BB0F40F4BF2B11F460FFE1
:1011D00004C06F5F7F4F8F4F9F4F089557FD90580A
:1011E000440F551F59F05F3F71F04795880F97FBEB
:1011F000991F61F09F3F79F08795089512161306A5
:101200001406551FF2CF4695F1DF08C016161706D3
:101210001806991FF1CF8695710561050894089508
:10122000E894BB2766277727CB0197F908958ADFD3
:1012300008F48FEF0895DADFA8F19E57A8F19851CE
:1012400060F039F1983070F5092E9927660F771FF5
:10125000881F991F0A94D1F71CC0BB27993F4CF4F3
:10126000B111B1E0B62B672F782F8827985FB1F7BF
:1012700008C0869577956795B79508F4B160939502
:10128000C1F7BB0F30F411F460FF03C06F5F7F4FF5
:101290008F4F3EF490958095709561957F4F8F4F5D
:1012A0009F4F08956894BDCFBBCF0BD086CF77DF1B
:1012B00028F07CDF18F0952309F068CF6DCF11245A
:1012C000B0CF8CDFA0F3959FD1F3950F50E0551F61
:1012D000629FF001729FBB27F00DB11D639FAA278B
:1012E000F00DB11DAA1F649F6627B00DA11D661FDA
:1012F000829F2227B00DA11D621F739FB00DA11DFB
:10130000621F839FA00D611D221F749F3327A00DB4
:10131000611D231F849F600D211D822F762F6A2F50
:1013200011249F5750408AF0E1F088234AF0EE0FD5
:10133000FF1FBB1F661F771F881F91505040A9F7E2
:101340009E3F510570F022CF6CCF5F3FECF3983E8B
:10135000DCF3869577956795B795F795E7959F5F49
:10136000C1F7FE2B880F911D9695879597F90895E3
:10137000A1E21A2EAA1BBB1BFD010DC0AA1FBB1F99
:10138000EE1FFF1FA217B307E407F50720F0A21B0B
:10139000B30BE40BF50B661F771F881F991F1A9478
:1013A00069F760957095809590959B01AC01BD01A2
:1013B000CF01089509D0A59F900DB49F900DA49FD3
:1013C000800D911D11240895A29FB001B39FC0010B
:1013D000A39F700D811D1124911DB29F700D811D61
:1013E0001124911D0895CF93DF93CDB7DEB72E97CB
:1013F0000FB6F894DEBF0FBECDBF85E08C838C891D
:101400009D899A838983AE01485E5F4F6E897F898B
:10141000CE010196BBD12E960FB6F894DEBF0FBE5B
:10142000CDBFDF91CF91089520FD09C0FC0123FDC0
:1014300005C022FF02C073836283518340830895F5
:1014400044FD17C046FD17C0AB01BC01DA01FB012A
:10145000AA0FBB1FEE1FFF1F1094D1F74A0F5B1F8F
:101460006E1F7F1FCB01BA01660F771F881F991F60
:1014700009C033E001C034E0660F771F881F991F51
:101480003150D1F7620F711D811D911D08950F9389
:101490001F93CF93DF938C01C801A2D2EC0197FD7B
:1014A00006C08BD2892BC1F7B801CE01D7D2CE01AD
:1014B000DF91CF911F910F9108958F929F92AF92DC
:1014C000BF92EF92FF920F931F93CF93DF938C0104
:1014D000D62F7A01B22E84D29C0133272B323105CC
:1014E00031F02D32310559F48B2D8068B82ED15052
:1014F00011F480E061C0C80173D297FDFACFCB2D03
:10150000CD7F2B2D2073F9F48033E9F4AA24AA941B
:10151000AD0E09F43EC0C80163D297FD3AC09C01EC
:101520002F7D33272835310541F4C264D25089F12B
:10153000C80156D297FF07C02CC0B6FE02C0C260D9
:1015400001C0C261DA2D812C912C540120ED280FAD
:10155000283078F0C4FF03C0B80180D217C02A3009
:1015600040F0C6FFF9CF2F7D3FEE320F3630A0F7A7
:1015700027504C2FC501B40163DF4B015C01C260F1
:10158000D15051F0C8012CD297FFE0CFC1FD04C06B
:10159000B0CF812C912C5401C7FF08C0B094A09407
:1015A00090948094811C911CA11CB11C2C2FB5011E
:1015B000A401C70139DF81E0DF91CF911F910F9125
:1015C000FF90EF90BF90AF909F908F9008955F92A3
:1015D0006F927F928F929F92AF92BF92CF92DF9243
:1015E000EF92FF920F931F93CF93DF93CDB7DEB7A8
:1015F000A0970FB6F894DEBF0FBECDBF5C01962E4C
:101600007A01F9018E010F5F1F4F680180E2D80156
:101610001D928A95E9F7D50113968C9080E090E0B1
:10162000612C712C30E061E070E083FC259183FE39
:1016300021918F01522E211103C080E090E090C0D3
:101640002E3511F4009751F1432F50E048175907F8
:101650003CF42D3559F12D3219F4772009F103C0EE
:10166000772009F468C0452D469546954695D601E4
:10167000A40FB11D452D47708B0102C0000F111F33
:101680004A95E2F7A8015C91452B4C93651459F0FB
:10169000561410F45394E7CF5A94E5CF31E004C0C8
:1016A0007724739401C0712C0196BFCF772019F075
:1016B0008E8180628E83311103C08824839417C089
:1016C000F6019E012F5D3F4F8081809581932E17FB
:1016D0003F07D1F7F2CFE114F10429F0D7018C9341
:1016E000F70131967F019A94812C9920E9F0C50188
:1016F00077D197FD17C0FC01FF2723E0F595E7950B
:101700002A95E1F7EC0DFD1D208130E0AC0147701A
:10171000552702C0359527954A95E2F720FDDBCF86
:10172000B5019CD1811089CFE114F10411F0D701EA
:101730001C92C80115C0422F469546954695D60184
:10174000A40FB11D422F47708B0102C0000F111F63
:101750004A95E2F7A8015C91452B4C93622EA4CFE9
:10176000A0960FB6F894DEBF0FBECDBFDF91CF912C
:101770001F910F91FF90EF90DF90CF90BF90AF90AF
:101780009F908F907F906F905F9008955F926F927F
:101790007F928F929F92AF92BF92CF92DF92EF9201
:1017A000FF920F931F93CF93DF936C01EB015A01CC
:1017B000FC0117821682512CF601E380FE01E3FC46
:1017C0008591E3FE8191182FEF01882309F4E0C091
:1017D00090E0F3D0892B19F0C60159DEEDCF153218
:1017E00041F4FE01E3FC1591E3FE1191EF01153286
:1017F00071F4C601F5D097FDC9C0412F50E09C019E
:10180000332724173507C1F2B60128D1C1C01A32D7
:1018100039F4E3FC1591E3FE1191EF0101E001C001
:1018200000E0F12C20ED210F2A3078F402606F2DBA
:1018300070E080E090E040E203DEF62EFE01E3FC83
:101840001591E3FE1191EF01EDCF01FF03C0F110FF
:1018500003C09EC0FF24FA94183619F01C3651F0CC
:1018600010C0FE01E3FC1591E3FE1191EF01183663
:1018700041F408600460FE01E3FC1591E3FE119160
:10188000EF01112309F484C0612F70E084EE90E031
:101890009CD0892B09F47CC000FD07C0F501808035
:1018A0009180C50102965C0102C0812C912C1E36EC
:1018B00049F4F6014681578160E070E0202FC401B1
:1018C000B3DD7ACF1336A1F401FD02C0FF24F394F7
:1018D000C60186D097FD5AC08114910429F0F40105
:1018E0008083C40101964C01FA94F110F1CF4AC0F3
:1018F0001B3551F49E01A4016F2DC60168DEEC0179
:10190000892B09F03FC039C0C601C1DD97FD3EC03B
:101910001F3649F128F4143621F1193639F125C062
:10192000133771F01537E9F020C08114910429F0C4
:10193000F4016082C40101964C01FA94FF2059F031
:10194000C6014ED03C0197FD06C037D0892B69F304
:10195000B601C30183D081149104A1F0F401108277
:1019600011C0006203C0006101C00064202FA40107
:101970006F2DC601A2DD811105C0F6018381807340
:1019800029F406C000FD18CF539416CF552019F046
:10199000852D90E002C08FEF9FEFDF91CF911F91D7
:1019A0000F91FF90EF90DF90CF90BF90AF909F90FE
:1019B0008F907F906F905F900895911168C08032F2
:1019C00019F089508550D0F70895FC01059006164E
:1019D00021F00020D9F7C00108953197CF01089573
:1019E000CF93DF93EC012B8120FF33C026FF0AC089
:1019F0002F7B2B838E819F8101969F838E838A818B
:101A000090E029C022FF0FC0E881F9818081082E73
:101A1000000C990B009719F420622B831AC03196A1
:101A2000F983E8830EC0EA85FB85199597FF09C005
:101A30002B81019611F080E201C080E1822B8B8323
:101A400008C02E813F812F5F3F4F3F832E83992710
:101A500002C08FEF9FEFDF91CF910895FB012381AB
:101A600020FF12C026FD10C08F3F3FEF930761F0AB
:101A700082832F7D20642383268137812150310981
:101A800037832683992708958FEF9FEF089599272D
:081A900088270895F894FFCFA8
:101A98000000000000000A00E803000000002569BB
:101AA800002D0063203D20257325642E25303364E6
:0E1AB80000256400434F4E4E45435445440004
:00000001FF
