S0120000556E6950726F6A6563742E737265630F
S113000071C000008EC000008CC000008AC00000D7
S113001088C0000086C0000084C0000082C00000C8
S113002080C000007EC000007CC000001CC1000035
S113003078C0000076C0000074C0000072C00000E8
S113004070C000006EC000006CC000006AC00000F8
S113005068C0000066C0000064C0000062C0000008
S113006060C000002FC100005CC000005AC0000046
S113007058C0000056C0000054C0000052C0000028
S113008050C000004EC000004CC000004AC0000038
S113009048C0000046C0000044C0000042C0000048
S11300A040C000003EC000003CC000003AC0000058
S11300B038C0000036C0000034C0000032C0000068
S11300C030C000002EC0000035C100002AC000006E
S11300D028C0000026C0000024C0000022C0000088
S11300E020C0000011241FBECFEFD1E2DEBFCDBF80
S11300F000E00CBF12E0A0E0B2E0E0E0F5E000E0D8
S11301000BBF02C007900D92A030B107D9F722E0CF
S1130110A0E0B2E001C01D92A030B207E1F795D093
S1130120EDC16ECFE0ECF0E080818823ECF78091A4
S1130130C6000895E0ECF0E0908195FFFDCF809338
S1130140C60008958AE0F6DF8DE0F4CF08958F921B
S11301509F92AF92BF92EF92CF93DF934B015C01DA
S1130160D42FC22F60E472E48FE090E0A5019401E3
S1130170A3D1CA01B90100D165D161507109D1304F
S113018019F482E08093C0001092C5006093C4000B
S113019088E98093C10082E0E81203C088E080937C
S11301A0C200C63031F4E2ECF0E0808182608083EA
S11301B00FC0C73031F4E2ECF0E0808184608083CA
S11301C007C0C93029F4E2ECF0E080818E608083BE
S11301D0DF91CF91EF90BF90AF909F908F90089553
S11301E09D9808959D9A089581E288BDFBCF089556
S11301F080910601881F8827881F08959D9884B5DB
S1130200836284BD85B5856085BDE7E0F1E08081CA
S11302108F778083E8E6F0E0808184608083EDE678
S1130220F0E0808180688083DFCF0895E3E7F0E029
S113023080818160808381E0809321018FEF95E04C
S113024090932501809324010895099A7894EEDF10
S1130250D5DFE12C00E028E040E060E970ED83E0C8
S113026090E075DFFFCF1F920F920FB60F9211240B
S11302700BB60F922F933F934F935F936F937F939C
S11302808F939F93AF93BF93EF93FF93B1DF882333
S113029029F092B182E0892782B901C0A1DFFF91E0
S11302A0EF91BF91AF919F918F917F916F915F91EA
S11302B04F913F912F910F900BBE0F900FBE0F9057
S11302C01F9018951F920F920FB60F9211240BB620
S11302D00F922F933F934F935F936F937F938F93DB
S11302E09F93AF93BF93EF93FF931CDF8D3339F448
S11302F079DF8DE31FDF26DF84E188BD08C08D32FE
S113030031F470DF82E288BD8DE214DF1BDFFF91E0
S1130310EF91BF91AF919F918F917F916F915F9179
S11303204F913F912F910F900BBE0F900FBE0F90E6
S11303301F9018951F920F920FB60F9211240BB6AF
S11303400F928F939F93EF93FF93E2E0F1E09081FC
S113035080E1892780838FEF95E090932501809336
S11303602401FF91EF919F918F910F900BBE0F90FD
S11303700FBE0F901F901895E89409C097FB3EF4A8
S113038090958095709561957F4F8F4F9F4F9923DE
S1130390A9F0F92F96E9BB279395F695879577955C
S11303A06795B795F111F8CFFAF4BB0F11F460FF1C
S11303B01BC06F5F7F4F8F4F9F4F16C0882311F074
S11303C096E911C0772321F09EE8872F762F05C088
S11303D0662371F096E8862F70E060E02AF09A9523
S11303E0660F771F881FDAF7880F9695879597F918
S11303F0089557FD9058440F551F59F05F3F71F011
S11304004795880F97FB991F61F09F3F79F0879577
S11304100895121613061406551FF2CF4695F1DF00
S113042008C0161617061806991FF1CF8695710590
S1130430610508940895E894BB2766277727CB01C4
S113044097F90895DEDFA8F19E57A8F1985160F05E
S113045039F1983070F5092E9927660F771F881F98
S1130460991F0A94D1F71CC0BB27993F4CF4B111D2
S1130470B1E0B62B672F782F8827985FB1F708C0B3
S1130480869577956795B79508F4B1609395C1F70C
S1130490BB0F30F411F460FF03C06F5F7F4F8F4FC9
S11304A03EF490958095709561957F4F8F4F9F4F47
S11304B008956894C1CFBFCFA1E21A2EAA1BBB1B1B
S11304C0FD010DC0AA1FBB1FEE1FFF1FA217B3071C
S11304D0E407F50720F0A21BB30BE40BF50B661F32
S11304E0771F881F991F1A9469F7609570958095F6
S11304F090959B01AC01BD01CF010895F894FFCF05
S9030000FC
