:1000000077C0000095C0000093C0000091C00000C0
:100010001EC300008DC000008BC0000089C000001E
:1000200087C0000085C0000083C0000081C00000C0
:100030007FC000007DC000007BC0000079C00000D0
:1000400077C0000075C0000073C0000071C00000E0
:100050006FC000006DC000006BC00000BAC300009C
:1000600067C000009BC4000063C0000061C00000C6
:100070005FC000005DC000005BC0000059C0000010
:1000800057C0000055C0000053C0000051C0000020
:100090004FC000004DC000004BC0000049C0000030
:1000A00047C0000045C0000043C0000041C0000040
:1000B0003FC000003DC000003BC0000039C0000050
:1000C00037C0000035C0000042C3000031C000004E
:1000D0002FC000002DC000002BC0000029C0000070
:1000E00027C000006364696E6F70737578585B0099
:1000F00011241FBECFEFD1E2DEBFCDBF00E00CBFA9
:1001000012E0A0E0B2E0EEEBFAE100E00BBF02C0CB
:1001100007900D92AC32B107D9F722E0ACE2B2E021
:1001200001C01D92A936B207E1F753D20C945D0DC0
:1001300067CFE0ECF0E0908195FFFDCF8093C600A3
:1001400008958AE0F6CF0895CF93DF93EC0188817C
:10015000882329F02196EDDF89918111FCCFF1DF11
:10016000DF91CF9108950F931F93CF93DF93CDB776
:10017000DEB728970FB6F894DEBF0FBECDBF9F93B2
:100180008F938EE092E09F938F938E010F5F1F4FAE
:100190001F930F9360D6C801D7DF0F900F900F9079
:1001A0000F900F900F9028960FB6F894DEBF0FBEF9
:1001B000CDBFDF91CF911F910F9108958F929F92A4
:1001C000AF92BF92EF92CF93DF934B015C01D42F9C
:1001D000C22F60E472E48FE090E0A501940100D6A4
:1001E000CA01B901AAD45FD561507109D13019F49F
:1001F00082E08093C0001092C5006093C40088E93B
:100200008093C10082E0E81203C088E08093C200BE
:10021000C63031F4E2ECF0E08081826080830FC070
:10022000C73031F4E2ECF0E080818460808307C065
:10023000C93029F4E2ECF0E080818E608083DF91A8
:10024000CF91EF90BF90AF909F908F900895CF92F5
:10025000DF92EF92FF926B017C0120E030E048ECEE
:1002600052E43BD41816ACF06091A6007091A70040
:1002700080E090E062D42AE037ED43E25CE34DD5C4
:10028000A70196014AD52DD47093A9006093A800C8
:100290001AC020E030E0A901C701B6011ED418162B
:1002A0002CF01092A9001092A8000DC020E030E0C0
:1002B00048EC52E4C701B601F2D4181624F41092A7
:1002C000A9001092A800FF90EF90DF90CF900895C2
:1002D0008F929F92AF92BF92CF92DF92EF92FF9256
:1002E0000F931F934B015C0169017A01E1EAF0E091
:1002F0001082A1E0B1E08C9188608C93A0EAB0E01C
:100300008C9182688C9380818861808360E074E244
:1003100084EF90E0A501940163D589019A0101154C
:10032000110561E02607310538F1D901C80141E026
:1003300050E0B695A795979587954F5F5F4F0097CB
:1003400061E0A607B105A8F74630510514F045E075
:1003500050E04330510581F13CF44130510561F0EA
:1003600042305105A9F060C044305105C9F1453013
:10037000510509F445C058C0E1EAF0E08081816090
:100380008083015011091093A7000093A6004CC070
:10039000E1EAF0E0808182608083689412F836950B
:1003A0002795179507951694D1F7015011091093C9
:1003B000A7000093A60038C0E1EAF0E080818360E6
:1003C0008083689415F836952795179507951694A8
:1003D000D1F7015011091093A7000093A60024C083
:1003E000E1EAF0E0808184608083012F122F232FC7
:1003F0003327015011091093A7000093A60014C0E1
:10040000E1EAF0E08081856080830F2EFAE0369586
:10041000279517950795FA95D1F7F02D0F5F1F4F88
:100420001093A7000093A6008091A6009091A700CA
:10043000892B29F41092A9001092A80003C0C701CB
:10044000B60105DF1F910F91FF90EF90DF90CF90E5
:10045000BF90AF909F908F9008952F923F924F92B0
:100460005F926F927F928F929F92AF92BF92CF9244
:10047000DF92EF92FF920F931F93CF93DF93CDB74D
:10048000DEB72C970FB6F894DEBF0FBECDBFFC01D0
:1004900090819A3009F484C07F01A12CB12C00E036
:1004A00010E03E012BE0620E711C0F2EF1E24F2E88
:1004B000F2E05F2EF02DFE0131966F010F2EF0E07D
:1004C0002F2EF2E03F2EF02D9235C1F5F701E00F0F
:1004D000F11F8181883391F598012E5F3F4FF7011D
:1004E000E20FF31F80818C3799F0F601EA0DFB1DB6
:1004F0000D5F1F4FD701A00FB11F890181930F5FBF
:100500001F4F5F01AC18BD088D918C37B9F701C042
:1005100089017F926F925F924F92DF92CF92C9D4FE
:100520008B859C8520DE8B859C85F101938382835E
:100530000F900F900F900F900F900F90F701E00F1A
:10054000F11F8081863519F5F701E00FF11F8181D8
:100550008033E9F40E5F1F4F4701800E911EF401B6
:100560008081893541F484E292E0EEDDE2E0F1E061
:10057000808180618083F40180818E3441F487E240
:1005800092E0E2DDE2E0F1E080818F7E80830F5F28
:100590001F4FF701E00FF11F90819A3009F094CFBF
:1005A0002C960FB6F894DEBF0FBECDBFDF91CF9172
:1005B0001F910F91FF90EF90DF90CF90BF90AF9081
:1005C0009F908F907F906F905F904F903F902F9073
:1005D0000895E1E0F1E0808180618083E2E0F1E074
:1005E0008081806180835B9AE3E7F0E080818160B5
:1005F000808381E0809321018FEF95E09093250126
:1006000080932401EEE6F0E080818160808385E0C4
:1006100085BD82E886BDE9E6F0E080818064808364
:10062000EB9A7894E12C00E028E040E060E970ED7E
:1006300083E090E0C3DDE8E0F2E022813381448191
:1006400055816081718180E090E042DEFFCF1F9292
:100650000F920FB60F9211240BB60F92CF92DF922A
:10066000EF92FF920F931F932F933F934F935F93BC
:100670006F937F938F939F93AF93BF93CF93DF93AA
:10068000EF93FF93E0E0F2E08481958101969583FA
:100690008483248135818681978128173907E0F189
:1006A000CFE2D2E0288139814A815B8104E211E006
:1006B000D801ED91FC91C888D988EA88FB88A0E030
:1006C000BAEFB0D3DC01CB018E0F9F1FA11DB11D6E
:1006D000C80ED91EEA1EFB1EC88AD98AEA8AFB8A7E
:1006E000288939894A895B8960E07CE886E897E453
:1006F00077D3E0E0F2E03183208315821482188200
:1007000019821A821B82188A198A1A8A1B8A8FEF09
:1007100095E0F80191838083FF91EF91DF91CF9174
:10072000BF91AF919F918F917F916F915F914F9109
:100730003F912F911F910F91FF90EF90DF90CF90FD
:100740000F900BBE0F900FBE0F901F9018951F9229
:100750000F920FB60F9211240BB60F922F933F9367
:100760004F935F936F937F938F939F93AF93BF93B9
:10077000EF93FF9380912E02813029F483E492E07D
:100780006CDE10922E028FEF95E0909325018093FE
:100790002401EFE2F2E080819181A281B381019690
:1007A000A11DB11D80839183A283B383FF91EF913B
:1007B000BF91AF919F918F917F916F915F914F9179
:1007C0003F912F910F900BBE0F900FBE0F901F9077
:1007D00018951F920F920FB60F9211240BB60F921D
:1007E000CF92DF92EF92FF920F931F932F933F933D
:1007F0004F935F936F937F938F939F93AF93BF9329
:10080000CF93DF93EF93FF9383E886BD80912C0213
:1008100090912D0201968D37910528F490932D0229
:1008200080932C0204C010922D0210922C02EFE251
:10083000F2E084859585A685B7850196A11DB11D39
:1008400084879587A687B7874997A105B10508F4DE
:100850008AC010923B0210923C0210923D0210920C
:100860003E02C0E0D2E06A817B818881998108E004
:1008700012E0F801C280D380E480F580681B790B18
:10088000072E000C880B990B5AD12FE632E143E872
:100890005AE343D2A7019601BCD0F8016283738367
:1008A00084839583D4DC288139818A819B812817B0
:1008B00039075CF58A819B8128813981C0900A02C1
:1008C000D0900B02E0900C02F0900D02821B930B73
:1008D000BC0122F466277727681B790B072E000CD2
:1008E000880B990B2CD12FE632E143E05AE315D265
:1008F000A70196018ED060930A0270930B02809339
:100900000C0290930D02A3DC2EC0E0E0F2E08281A5
:10091000938120813181C0900A02D0900B02E09037
:100920000C02F0900D02821B930BBC0122F466278F
:100930007727681B790B072E000C880B990BFFD0CB
:100940002FE632E143E05AE3E8D19B01AC01C70155
:10095000B6015ED060930A0270930B0280930C0282
:1009600090930D0274DCFF91EF91DF91CF91BF91D5
:10097000AF919F918F917F916F915F914F913F9137
:100980002F911F910F91FF90EF90DF90CF900F90DC
:100990000BBE0F900FBE0F901F9018951F920F92D5
:1009A0000FB60F9211240BB60F928F93AF93BF9394
:1009B000EF93FF93A3E4B2E09496EC919497F0E068
:1009C0008091C600ED5BFD4F80839496EC91F0E042
:1009D000ED5BFD4F80818A3031F41092670281E037
:1009E00080932E0209C0E3E4F2E084A18F5F84A328
:1009F0008C3110F010926702FF91EF91BF91AF918F
:100A00008F910F900BBE0F900FBE0F901F901895F7
:100A10005058BB27AA270ED008C1F9D030F0FED01D
:100A200020F031F49F3F11F41EF4EEC00EF4E09577
:100A3000E7FBE4C0E92F0AD180F3BA176207730716
:100A40008407950718F071F49EF522C10EF4E09525
:100A50000B2EBA2FA02D0B01B90190010C01CA0178
:100A6000A0011124FF27591B99F0593F50F4503E23
:100A700068F11A16F040A22F232F342F4427585F15
:100A8000F3CF469537952795A795F0405395C9F72D
:100A90007EF41F16BA0B620B730B840BBAF09150E5
:100AA000A1F0FF0FBB1F661F771F881FC2F70EC084
:100AB000BA0F621F731F841F48F487957795679557
:100AC000B795F7959E3F08F0B3CF9395880F08F040
:100AD0009927EE0F9795879508956CD008F481E0DB
:100AE0000895BCD088F09F5790F0B92F9927B7513F
:100AF000A0F0D1F0660F771F881F991F1AF0BA95E2
:100B0000C9F712C0B13081F0C3D0B1E00895C0C0C0
:100B1000672F782F8827B85F39F0B93FCCF38695D7
:100B200077956795B395D9F73EF490958095709534
:100B300061957F4F8F4F9F4F0895E89409C097FBB1
:100B40003EF490958095709561957F4F8F4F9F4FA4
:100B50009923A9F0F92F96E9BB279395F6958795E8
:100B600077956795B795F111F8CFFAF4BB0F11F4AB
:100B700060FF1BC06F5F7F4F8F4F9F4F16C0882352
:100B800011F096E911C0772321F09EE8872F762F88
:100B900005C0662371F096E8862F70E060E02AF0C9
:100BA0009A95660F771F881FDAF7880F96958795B5
:100BB00097F90895990F0008550FAA0BE0E8FEEF8A
:100BC00016161706E807F907C0F012161306E40711
:100BD000F50798F0621B730B840B950B39F40A260A
:100BE00061F0232B242B252B21F408950A2609F4E8
:100BF000A140A6958FEF811D811D089597F99F67EC
:100C000080E870E060E008959FEF80EC0895002494
:100C10000A941616170618060906089500240A9461
:100C200012161306140605060895092E0394000CE7
:100C300011F4882352F0BB0F40F4BF2B11F460FF76
:100C400004C06F5F7F4F8F4F9F4F089557FD90589F
:100C5000440F551F59F05F3F71F04795880F97FB80
:100C6000991F61F09F3F79F087950895121613063A
:100C70001406551FF2CF4695F1DF08C01616170669
:100C80001806991FF1CF869571056105089408959E
:100C9000E894BB2766277727CB0197F908958ADF69
:100CA00008F48FEF0895DADFA8F19E57A8F1985164
:100CB00060F039F1983070F5092E9927660F771F8B
:100CC000881F991F0A94D1F71CC0BB27993F4CF489
:100CD000B111B1E0B62B672F782F8827985FB1F755
:100CE00008C0869577956795B79508F4B160939598
:100CF000C1F7BB0F30F411F460FF03C06F5F7F4F8B
:100D00008F4F3EF490958095709561957F4F8F4FF2
:100D10009F4F08956894BDCFBBCF0BD086CF77DFB0
:100D200028F07CDF18F0952309F068CF6DCF1124EF
:100D3000B0CF8CDFA0F3959FD1F3950F50E0551FF6
:100D4000629FF001729FBB27F00DB11D639FAA2720
:100D5000F00DB11DAA1F649F6627B00DA11D661F6F
:100D6000829F2227B00DA11D621F739FB00DA11D90
:100D7000621F839FA00D611D221F749F3327A00D4A
:100D8000611D231F849F600D211D822F762F6A2FE6
:100D900011249F5750408AF0E1F088234AF0EE0F6B
:100DA000FF1FBB1F661F771F881F91505040A9F778
:100DB0009E3F510570F022CF6CCF5F3FECF3983E21
:100DC000DCF3869577956795B795F795E7959F5FDF
:100DD000C1F7FE2B880F911D9695879597F9089579
:100DE000A1E21A2EAA1BBB1BFD010DC0AA1FBB1F2F
:100DF000EE1FFF1FA217B307E407F50720F0A21BA1
:100E0000B30BE40BF50B661F771F881F991F1A940D
:100E100069F760957095809590959B01AC01BD0137
:100E2000CF01089509D0A59F900DB49F900DA49F68
:100E3000800D911D11240895A29FB001B39FC001A0
:100E4000A39F700D811D1124911DB29F700D811DF6
:100E50001124911D08950F931F93CF93DF93CDB766
:100E6000DEB72E970FB6F894DEBF0FBECDBF0E894A
:100E70001F8986E08C831A8309838FEF9FE79E8307
:100E80008D83AE01465E5F4F688D798DCE010196F0
:100E900031D0EF81F885E00FF11F10822E960FB64A
:100EA000F894DEBF0FBECDBFDF91CF911F910F91A0
:100EB0000895CF93DF93CDB7DEB72E970FB6F89492
:100EC000DEBF0FBECDBF85E08C838C899D899A8360
:100ED0008983AE01485E5F4F6E897F89CE0101969E
:100EE000B8D32E960FB6F894DEBF0FBECDBFDF91FC
:100EF000CF9108952F923F924F925F926F927F927F
:100F00008F929F92AF92BF92CF92DF92EF92FF9219
:100F10000F931F93CF93DF93CDB7DEB72B970FB609
:100F2000F894DEBF0FBECDBF6C017B018A01FC01CE
:100F300017821682838181FFBFC1CE0101963C01D9
:100F4000F6019381F70193FD859193FF81917F01D4
:100F5000882309F4ADC1853239F493FD859193FF5F
:100F600081917F01853221F4B60190E0F0D4E8CF81
:100F7000912C212C312CFFE1F315D8F08B3279F034
:100F800038F4803279F08332A1F4232D20611DC022
:100F90008D3261F0803369F4232D216016C0832DDA
:100FA0008260382EE32DE4603E2E2AC0F32DF860D7
:100FB0001DC037FC2DC020ED280F2A3040F08E32A6
:100FC000B9F436FC75C1232D2064322E19C036FECB
:100FD00006C08AE0989E200D1124922E11C0EAE0EE
:100FE0002E9E200D1124222EF32DF0623F2E08C0DC
:100FF0008C3621F4832D8068382E02C0883641F467
:10100000F70193FD859193FF81917F018111B3CF0A
:10101000982F9F7D9554933028F40C5F1F4F9FE3CA
:1010200099830DC0833631F0833771F0833509F031
:1010300055C020C0F801808189830E5F1F4F88242E
:101040008394912C530112C02801F2E04F0E511CE1
:10105000F801A080B18036FE03C0692D70E002C0A7
:101060006FEF7FEFC5012AD44C018201F32DFF778A
:101070003F2E15C0280122E0420E511CF801A0802D
:10108000B18036FE03C0692D70E002C06FEF7FEFC4
:10109000C50109D44C01F32DF0683F2E820133FCC9
:1010A00019C0822D90E088169906A0F4B60180E25E
:1010B00090E04DD42A94F5CFF50137FC859137FEA9
:1010C00081915F01B60190E042D421102A9421E081
:1010D000821A91088114910479F7E1C0843611F0E5
:1010E000893639F5F80137FE07C060817181828148
:1010F00093810C5F1F4F08C060817181072E000C27
:10110000880B990B0E5F1F4FF32DFF763F2E97FF35
:1011100009C090958095709561957F4F8F4F9F4F37
:10112000F0683F2E2AE030E0A30166D4882E8618AE
:1011300044C0853731F4232D2F7EB22E2AE030E0D3
:1011400025C0932D997FB92E8F36C1F018F48835BC
:1011500079F0AEC0803719F0883721F0A9C0E92FA7
:10116000E061BE2EB4FE0DC0FB2DF460BF2E09C0A1
:1011700034FE0AC0292F2660B22E06C028E030E0D7
:1011800005C020E130E002C020E132E0F801B7FE06
:1011900007C060817181828193810C5F1F4F06C0FF
:1011A0006081718180E090E00E5F1F4FA30124D425
:1011B000882E8618FB2DFF773F2E36FE0DC0232D7F
:1011C0002E7FA22E891458F434FE0BC032FC09C0C5
:1011D000832D8E7EA82E05C0B82CA32C03C0B82C5E
:1011E00001C0B92CA4FE0FC0FE01E80DF11D8081E5
:1011F000803321F49A2D997EA92E09C0A2FE06C043
:10120000B394B39404C08A2D867809F0B394A3FCF8
:1012100010C0A0FE06C0B21480F4280C922C9B18BB
:101220000DC0B21458F4B60180E290E090D3B394AC
:10123000F8CFB21418F42B1802C0982C212CA4FE5D
:101240000FC0B60180E390E082D3A2FE16C0A1FCDD
:1012500003C088E790E002C088E590E0B6010CC0CA
:101260008A2D867851F0A1FE02C08BE201C080E297
:10127000A7FC8DE2B60190E06AD3891430F4B60180
:1012800080E390E064D39A94F8CF8A94F301E80D58
:10129000F11D8081B60190E05AD38110F6CF222053
:1012A00009F44ECEB60180E290E051D32A94F7CFF4
:1012B000F6018681978102C08FEF9FEF2B960FB6C4
:1012C000F894DEBF0FBECDBFDF91CF911F910F917C
:1012D000FF90EF90DF90CF90BF90AF909F908F9056
:1012E0007F906F905F904F903F902F90089520FDDA
:1012F00009C0FC0123FD05C022FF02C07383628385
:1013000051834083089544FD17C046FD17C0AB01CB
:10131000BC01DA01FB01AA0FBB1FEE1FFF1F1094D7
:10132000D1F74A0F5B1F6E1F7F1FCB01BA01660FFB
:10133000771F881F991F09C033E001C034E0660F92
:10134000771F881F991F3150D1F7620F711D811DC2
:10135000911D08950F931F93CF93DF938C01C801C4
:10136000B8D2EC0197FD06C08BD2892BC1F7B8012A
:10137000CE0129D3CE01DF91CF911F910F91089516
:101380008F929F92AF92BF92EF92FF920F931F9313
:10139000CF93DF938C01D62F7A01B22E9AD29C0183
:1013A00033272B32310531F02D32310559F48B2D95
:1013B0008068B82ED15011F480E061C0C80189D294
:1013C00097FDFACFCB2DCD7F2B2D2073F9F48033F1
:1013D000E9F4AA24AA94AD0E09F43EC0C80179D25A
:1013E00097FD3AC09C012F7D33272835310541F404
:1013F000C264D25089F1C8016CD297FF07C02CC0DB
:10140000B6FE02C0C26001C0C261DA2D812C912CEF
:10141000540120ED280F283078F0C4FF03C0B80134
:10142000D2D217C02A3040F0C6FFF9CF2F7D3FEE51
:10143000320F3630A0F727504C2FC501B40163DFBF
:101440004B015C01C260D15051F0C80142D297FFFC
:10145000E0CFC1FD04C0B0CF812C912C5401C7FF57
:1014600008C0B094A09490948094811C911CA11CFD
:10147000B11C2C2FB501A401C70139DF81E0DF9138
:10148000CF911F910F91FF90EF90BF90AF909F90E1
:101490008F9008955F926F927F928F929F92AF92FA
:1014A000BF92CF92DF92EF92FF920F931F93CF9351
:1014B000DF93CDB7DEB7A0970FB6F894DEBF0FBEAF
:1014C000CDBF5C01962E7A01F9018E010F5F1F4F8F
:1014D000680180E2D8011D928A95E9F7D50113963B
:1014E0008C9080E090E0612C712C30E061E070E045
:1014F00083FC259183FE21918F01522E211103C07F
:1015000080E090E090C02E3511F4009751F1432F08
:1015100050E0481759073CF42D3559F12D3219F494
:10152000772009F103C0772009F468C0452D46955E
:1015300046954695D601A40FB11D452D47708B01E8
:1015400002C0000F111F4A95E2F7A8015C91452BDC
:101550004C93651459F0561410F45394E7CF5A94F1
:10156000E5CF31E004C07724739401C0712C01965B
:10157000BFCF772019F08E8180628E83311103C036
:101580008824839417C0F6019E012F5D3F4F808110
:10159000809581932E173F07D1F7F2CFE114F10424
:1015A00029F0D7018C93F70131967F019A94812C11
:1015B0009920E9F0C5018DD197FD17C0FC01FF27E7
:1015C00023E0F595E7952A95E1F7EC0DFD1D2081C7
:1015D00030E0AC014770552702C0359527954A95F4
:1015E000E2F720FDDBCFB501EED1811089CFE11408
:1015F000F10411F0D7011C92C80115C0422F469585
:1016000046954695D601A40FB11D422F47708B0118
:1016100002C0000F111F4A95E2F7A8015C91452B0B
:101620004C93622EA4CFA0960FB6F894DEBF0FBEE7
:10163000CDBFDF91CF911F910F91FF90EF90DF9081
:10164000CF90BF90AF909F908F907F906F905F9062
:1016500008955F926F927F928F929F92AF92BF9206
:10166000CF92DF92EF92FF920F931F93CF93DF936E
:101670006C01EB015A01FC0117821682512CF60114
:10168000E380FE01E3FC8591E3FE8191182FEF01D9
:10169000882309F4E0C090E0F3D0892B19F0C6014B
:1016A00059DEEDCF153241F4FE01E3FC1591E3FE66
:1016B0001191EF01153271F4C6010BD197FDC9C02C
:1016C000412F50E09C01332724173507C1F2B601A2
:1016D0007AD1C1C01A3239F4E3FC1591E3FE1191BD
:1016E000EF0101E001C000E0F12C20ED210F2A30D4
:1016F00078F402606F2D70E080E090E040E203DE5D
:10170000F62EFE01E3FC1591E3FE1191EF01EDCF02
:1017100001FF03C0F11003C09EC0FF24FA941836E5
:1017200019F01C3651F010C0FE01E3FC1591E3FEE8
:101730001191EF01183641F408600460FE01E3FCEA
:101740001591E3FE1191EF01112309F484C0612F7B
:1017500070E084EE90E09CD0892B09F47CC000FD01
:1017600007C0F50180809180C50102965C0102C02E
:10177000812C912C1E3649F4F6014681578160E098
:1017800070E0202FC401B3DD7ACF1336A1F401FD40
:1017900002C0FF24F394C6019CD097FD5AC0811467
:1017A000910429F0F4018083C40101964C01FA945C
:1017B000F110F1CF4AC01B3551F49E01A4016F2DE9
:1017C000C60168DEEC01892B09F03FC039C0C601B3
:1017D000C1DD97FD3EC01F3649F128F4143621F1D2
:1017E000193639F125C0133771F01537E9F020C0EB
:1017F0008114910429F0F4016082C40101964C0126
:10180000FA94FF2059F0C60164D03C0197FD06C050
:1018100037D0892B69F3B601C301D5D08114910467
:10182000A1F0F401108211C0006203C0006101C088
:101830000064202FA4016F2DC601A2DD811105C017
:10184000F6018381807329F406C000FD18CF5394FC
:1018500016CF552019F0852D90E002C08FEF9FEF35
:10186000DF91CF911F910F91FF90EF90DF90CF907C
:10187000BF90AF909F908F907F906F905F900895F2
:10188000911118C1803219F089508550D0F7089510
:10189000FC010590061621F00020D9F7C00108953B
:1018A0003197CF010895FC010590615070400110FF
:1018B000D8F7809590958E0F9F1F0895FC01615079
:1018C000704001900110D8F7809590958E0F9F1F62
:1018D0000895CF93DF93EC012B8120FF33C026FFC7
:1018E0000AC02F7B2B838E819F8101969F838E83DD
:1018F0008A8190E029C022FF0FC0E881F9818081B0
:10190000082E000C990B009719F420622B831AC043
:101910003196F983E8830EC0EA85FB85199597FF18
:1019200009C02B81019611F080E201C080E1822B79
:101930008B8308C02E813F812F5F3F4F3F832E83D3
:10194000992702C08FEF9FEFDF91CF9108950F93FA
:101950001F93CF93DF93FB01238121FD03C08FEF02
:101960009FEF2CC022FF16C046815781248135810C
:101970004217530744F4A081B1819D012F5F3F4F6F
:10198000318320838C93268137812F5F3F4F3783AC
:10199000268314C08B01EC01FB010084F185E02D4E
:1019A0001995892BE1F6D80116968D919C91179780
:1019B000019617969C938E931697CE01DF91CF9147
:1019C0001F910F910895FB01238120FF12C026FD76
:1019D00010C08F3F3FEF930761F082832F7D20641B
:1019E0002383268137812150310937832683992724
:1019F00008958FEF9FEF0895FA01AA27283051F13B
:101A0000203181F1E8946F936E7F6E5F7F4F8F4F2F
:101A10009F4FAF4FB1E03ED0B4E03CD0670F781F8E
:101A2000891F9A1FA11D680F791F8A1F911DA11D73
:101A30006A0F711D811D911DA11D20D009F46894AC
:101A40003F912AE0269F11243019305D3193DEF654
:101A5000CF010895462F4770405D4193B3E00FD00A
:101A6000C9F7F6CF462F4F70405D4A3318F0495DF5
:101A700031FD4052419302D0A9F7EACFB4E0A695D8
:101A80009795879577956795BA95C9F700976105FA
:101A9000710508959B01AC010A2E06945795479550
:101AA00037952795BA95C9F7620F731F841F951F45
:0E1AB000A01D0895992788270895F894FFCF68
:101ABE000000E80300000A0088130000A04025691A
:101ACE00002D0063203D20257325642E25303364C0
:0C1ADE00002564004F6E004F666600009B
:00000001FF
